{
  "contractName": "ProductAutcion",
  "abi": [
    {
      "constant": true,
      "inputs": [],
      "name": "name",
      "outputs": [
        {
          "name": "",
          "type": "string"
        }
      ],
      "payable": false,
      "stateMutability": "view",
      "type": "function"
    },
    {
      "constant": true,
      "inputs": [],
      "name": "endBlock",
      "outputs": [
        {
          "name": "",
          "type": "uint256"
        }
      ],
      "payable": false,
      "stateMutability": "view",
      "type": "function"
    },
    {
      "constant": true,
      "inputs": [
        {
          "name": "",
          "type": "address"
        }
      ],
      "name": "pendingReturns",
      "outputs": [
        {
          "name": "",
          "type": "uint256"
        }
      ],
      "payable": false,
      "stateMutability": "view",
      "type": "function"
    },
    {
      "constant": true,
      "inputs": [],
      "name": "beneficiary",
      "outputs": [
        {
          "name": "",
          "type": "address"
        }
      ],
      "payable": false,
      "stateMutability": "view",
      "type": "function"
    },
    {
      "constant": true,
      "inputs": [],
      "name": "startBlock",
      "outputs": [
        {
          "name": "",
          "type": "uint256"
        }
      ],
      "payable": false,
      "stateMutability": "view",
      "type": "function"
    },
    {
      "constant": true,
      "inputs": [],
      "name": "productAuction",
      "outputs": [
        {
          "name": "",
          "type": "address"
        }
      ],
      "payable": false,
      "stateMutability": "view",
      "type": "function"
    },
    {
      "constant": true,
      "inputs": [],
      "name": "highestBidder",
      "outputs": [
        {
          "name": "",
          "type": "address"
        }
      ],
      "payable": false,
      "stateMutability": "view",
      "type": "function"
    },
    {
      "constant": true,
      "inputs": [],
      "name": "price",
      "outputs": [
        {
          "name": "",
          "type": "uint256"
        }
      ],
      "payable": false,
      "stateMutability": "view",
      "type": "function"
    },
    {
      "constant": true,
      "inputs": [],
      "name": "highestBid",
      "outputs": [
        {
          "name": "",
          "type": "uint256"
        }
      ],
      "payable": false,
      "stateMutability": "view",
      "type": "function"
    },
    {
      "inputs": [
        {
          "name": "_startBlock",
          "type": "uint256"
        },
        {
          "name": "_endBlock",
          "type": "uint256"
        },
        {
          "name": "_name",
          "type": "string"
        },
        {
          "name": "_price",
          "type": "uint256"
        },
        {
          "name": "_beneficiary",
          "type": "address"
        },
        {
          "name": "_owner",
          "type": "address"
        },
        {
          "name": "_token",
          "type": "address"
        }
      ],
      "payable": false,
      "stateMutability": "nonpayable",
      "type": "constructor"
    },
    {
      "constant": false,
      "inputs": [
        {
          "name": "tokenAmount",
          "type": "uint256"
        }
      ],
      "name": "placeBid",
      "outputs": [],
      "payable": false,
      "stateMutability": "nonpayable",
      "type": "function"
    },
    {
      "constant": false,
      "inputs": [],
      "name": "claimTokens",
      "outputs": [],
      "payable": false,
      "stateMutability": "nonpayable",
      "type": "function"
    },
    {
      "constant": false,
      "inputs": [],
      "name": "beneficiaryWithdraw",
      "outputs": [],
      "payable": false,
      "stateMutability": "nonpayable",
      "type": "function"
    }
  ],
  "bytecode": "0x60806040523480156200001157600080fd5b5060405162000fd838038062000fd8833981018060405260e08110156200003757600080fd5b81516020830151604084018051929491938201926401000000008111156200005e57600080fd5b820160208101848111156200007257600080fd5b81516401000000008111828201871017156200008d57600080fd5b5050602082015160408301516060840151608090940151929550909350919085871062000106576040517f08c379a000000000000000000000000000000000000000000000000000000000815260040180806020018281038252602b81526020018062000fad602b913960400191505060405180910390fd5b438711156200017657604080517f08c379a000000000000000000000000000000000000000000000000000000000815260206004820152601460248201527f496e636f72726563742073746172742074696d65000000000000000000000000604482015290519081900360640190fd5b6001600160a01b038216620001ec57604080517f08c379a000000000000000000000000000000000000000000000000000000000815260206004820152601360248201527f4f776e6572206e6f742073706563696669656400000000000000000000000000604482015290519081900360640190fd5b60018054306001600160a01b031991821617909155600080549091166001600160a01b0383161790556002879055600386905584516200023490600490602088019062000272565b5050600592909255600980546001600160a01b039283166001600160a01b031991821617909155600880549290931691161790555062000317915050565b828054600181600116156101000203166002900490600052602060002090601f016020900481019282601f10620002b557805160ff1916838001178555620002e5565b82800160010185558215620002e5579182015b82811115620002e5578251825591602001919060010190620002c8565b50620002f3929150620002f7565b5090565b6200031491905b80821115620002f35760008155600101620002fe565b90565b610c8680620003276000396000f3fe608060405234801561001057600080fd5b50600436106100b45760003560e01c80635340731c116100715780635340731c146101ac57806391f90157146101b45780639979ef45146101bc5780639af6549a146101d9578063a035b1fe146101e1578063d57bde79146101e9576100b4565b806306fdde03146100b9578063083c63231461013657806326b387bb1461015057806338af3eed1461017657806348c54b9d1461019a57806348cd4cb1146101a4575b600080fd5b6100c16101f1565b6040805160208082528351818301528351919283929083019185019080838360005b838110156100fb5781810151838201526020016100e3565b50505050905090810190601f1680156101285780820380516001836020036101000a031916815260200191505b509250505060405180910390f35b61013e61027f565b60408051918252519081900360200190f35b61013e6004803603602081101561016657600080fd5b50356001600160a01b0316610285565b61017e610297565b604080516001600160a01b039092168252519081900360200190f35b6101a26102a6565b005b61013e61054b565b61017e610551565b61017e610560565b6101a2600480360360208110156101d257600080fd5b503561056f565b6101a26108e7565b61013e610ad1565b61013e610ad7565b6004805460408051602060026001851615610100026000190190941693909304601f810184900484028201840190925281815292918301828280156102775780601f1061024c57610100808354040283529160200191610277565b820191906000526020600020905b81548152906001019060200180831161025a57829003601f168201915b505050505081565b60035481565b600b6020526000908152604090205481565b6009546001600160a01b031681565b60035443116102ff5760408051600160e51b62461bcd02815260206004820152601460248201527f41756374696f6e206973206e6f7420656e646564000000000000000000000000604482015290519081900360640190fd5b336000908152600b6020526040902054806103645760408051600160e51b62461bcd02815260206004820152601360248201527f4e6f7468696e6720746f207472616e7366657200000000000000000000000000604482015290519081900360640190fd5b336000818152600b60205260408120556006546001600160a01b03161415610432576000546007546001600160a01b039091169063a9059cbb9033906103b190859063ffffffff610add16565b6040518363ffffffff1660e01b815260040180836001600160a01b03166001600160a01b0316815260200182815260200192505050602060405180830381600087803b15801561040057600080fd5b505af1158015610414573d6000803e3d6000fd5b505050506040513d602081101561042a57600080fd5b506105489050565b6000805460408051600160e01b63095ea7b30281523360048201526024810185905290516001600160a01b039092169263095ea7b3926044808401936020939083900390910190829087803b15801561048a57600080fd5b505af115801561049e573d6000803e3d6000fd5b505050506040513d60208110156104b457600080fd5b50506000805460015460408051600160e01b6323b872dd0281526001600160a01b03928316600482015233602482015260448101869052905191909216926323b872dd92606480820193602093909283900390910190829087803b15801561051b57600080fd5b505af115801561052f573d6000803e3d6000fd5b505050506040513d602081101561054557600080fd5b50505b50565b60025481565b6001546001600160a01b031681565b6006546001600160a01b031681565b60035443106105c85760408051600160e51b62461bcd02815260206004820152601160248201527f41756374696f6e2068617320656e646564000000000000000000000000000000604482015290519081900360640190fd5b60055460005460408051600160e01b6370a0823102815233600482015290516001600160a01b03909216916370a0823191602480820192602092909190829003018186803b15801561061957600080fd5b505afa15801561062d573d6000803e3d6000fd5b505050506040513d602081101561064357600080fd5b5051101561069b5760408051600160e51b62461bcd02815260206004820152601060248201527f4e6f7420656e6f7567682066756e647300000000000000000000000000000000604482015290519081900360640190fd5b60075481116106f45760408051600160e51b62461bcd02815260206004820152601c60248201527f426964206973206c657373207468656e20686967686573742062696400000000604482015290519081900360640190fd5b600554811161073757604051600160e51b62461bcd028152600401808060200182810382526027815260200180610c346027913960400191505060405180910390fd5b6009546001600160a01b031633141561079a5760408051600160e51b62461bcd02815260206004820152601760248201527f43616e7420626964206f6e206f776e2070726f64756374000000000000000000604482015290519081900360640190fd5b6000805460015460408051600160e01b63095ea7b30281526001600160a01b039283166004820152602481018690529051919092169263095ea7b392604480820193602093909283900390910190829087803b1580156107f957600080fd5b505af115801561080d573d6000803e3d6000fd5b505050506040513d602081101561082357600080fd5b50506000805460015460408051600160e01b6323b872dd0281523360048201526001600160a01b03928316602482015260448101869052905191909216926323b872dd92606480820193602093909283900390910190829087803b15801561088a57600080fd5b505af115801561089e573d6000803e3d6000fd5b505050506040513d60208110156108b457600080fd5b50506007819055600680546001600160a01b031916339081179091556000908152600b6020526040902080549091019055565b60035443116109405760408051600160e51b62461bcd02815260206004820152601460248201527f41756374696f6e206973206e6f7420656e646564000000000000000000000000604482015290519081900360640190fd5b6009546001600160a01b031633146109a25760408051600160e51b62461bcd02815260206004820152601c60248201527f4f6e6c792073656c6c65722063616e20636c61696d20746f6b656e7300000000604482015290519081900360640190fd5b6007546000906109b990600563ffffffff610b4216565b90506109cc81606463ffffffff610ba516565b6000546007549192506001600160a01b03169063a9059cbb9033906109f7908563ffffffff610add16565b6040518363ffffffff1660e01b815260040180836001600160a01b03166001600160a01b0316815260200182815260200192505050602060405180830381600087803b158015610a4657600080fd5b505af1158015610a5a573d6000803e3d6000fd5b505050506040513d6020811015610a7057600080fd5b50506000805460085460408051600160e01b63a9059cbb0281526001600160a01b039283166004820152602481018690529051919092169263a9059cbb92604480820193602093909283900390910190829087803b15801561051b57600080fd5b60055481565b60075481565b600082821115610b375760408051600160e51b62461bcd02815260206004820152601e60248201527f536166654d6174683a207375627472616374696f6e206f766572666c6f770000604482015290519081900360640190fd5b508082035b92915050565b600082610b5157506000610b3c565b82820282848281610b5e57fe5b0414610b9e57604051600160e51b62461bcd028152600401808060200182810382526021815260200180610c136021913960400191505060405180910390fd5b9392505050565b6000808211610bfe5760408051600160e51b62461bcd02815260206004820152601a60248201527f536166654d6174683a206469766973696f6e206279207a65726f000000000000604482015290519081900360640190fd5b6000828481610c0957fe5b0494935050505056fe536166654d6174683a206d756c7469706c69636174696f6e206f766572666c6f774269642073686f756c6420626520626967676572207468656e20696e697469616c207072696365a165627a7a72305820f982038cd72ff2a3e9f86e5121bb293bdf77cfa9e377462ce3db7579aefe7c36002941756374696f6e2073746172742074696d652069732067726561746572207468616e20656e642074696d65",
  "source": "pragma solidity ^0.5.0;\n\nimport './VSTToken.sol';\nimport '@openzeppelin/contracts/math/SafeMath.sol';\n\ncontract Store {\n    using SafeMath for uint;\n    VSTToken Token;\n    constructor(address _tokenAddress) public {\n        tokenAddress = _tokenAddress;\n        Token = VSTToken(tokenAddress);\n        contractAddress = address(this);\n    }\n    address payable contractAddress;\n    address tokenAddress;\n    mapping(string => Product) public products;\n    mapping(address => Deal ) public deals;\n    string[] public productIndex;\n\n    // related with auction\n    address[] public auctions;\n    mapping(string => address) public auctionsMapping;\n\n    struct Product {\n        string name;\n        uint price;\n        address payable owner;\n        bool purchased;\n    }\n\n    struct Deal {\n        string name;\n        uint price;\n        address payable seller;\n        address payable buyer;\n        bool isDone;\n    }\n\n    event ProductCreated(\n        string name,\n        uint price,\n        address payable owner,\n        bool purchased\n    );\n\n    event ProductPurchased(\n        string name,\n        uint price,\n        address payable owner,\n        bool purchased\n    );\n\n    event DealCreated(\n        string name,\n        uint price,\n        address seller,\n        address buyer\n    );\n\n    // fallback function\n    function () external payable {\n    }\n\n    function checkBalance(address _address) public view returns (uint _balance) {\n        return Token.balanceOf(_address);\n    }\n// regular sale for pt1 and pt2\n    function sellProduct(string memory _name, uint _price) public {\n        // Require a valid name\n        require(bytes(_name).length > 0, \"Invalid name\");\n        // Require a valid price\n        require(_price > 0, \"Invalid price\");\n        // Increment product count\n        // Create the product\n        products[_name] = Product(_name, _price, msg.sender, false);\n        // add index to an array\n        productIndex.push(_name);\n        // Trigger an event\n        emit ProductCreated(_name, _price, msg.sender, false);\n    }\n\n// overloaded sale method for auction feature\n    function sellProduct (\n        string memory _name,\n        uint _price,\n        uint _time\n    )\n        public\n        returns (bool)\n    {\n        require(bytes(_name).length > 0, \"Invalid name\");\n        require(_price > 0, \"Invalid price\");\n\n        uint startBlock = block.number;\n        uint auctionDuration = _time;\n        // @TODO check gas limit when doing complex calc\n        // to seconds\n        auctionDuration = auctionDuration.mul(60);\n        // avg block time is 14 seconds\n        // number of block will be created during _time\n        uint auctDurationInBlocks = auctionDuration.div(14);\n        uint endBlock = startBlock.add(auctDurationInBlocks);\n        // factory function that creates auction for the product\n        auctionFactory(startBlock, endBlock, _name, _price, msg.sender, contractAddress, tokenAddress);\n    }\n    function purchaseProduct(string memory _name) public payable returns (bool) {\n        // Fetch the product\n        Product memory _product = products[_name];\n        // Fetch the owner\n        address payable _seller = _product.owner;\n        address payable _buyer = msg.sender;\n        // Require that the buyer is not the seller\n        require(_seller != _buyer, \"Cant buy your own product\");\n        // Check buyer token balance\n        uint buyerBalance = checkBalance(_buyer);\n        require(buyerBalance >= _product.price, \"Not enough funds\");\n        // Trigger an event\n        emit ProductPurchased(_product.name, _product.price, _buyer, true);\n        // Delete the product => set its values to 0\n        delete products[_name];\n        // remove _name from an array\n        // @dev delete productIndex[uint key]\n        // add product to deals mapping\n        deals[_seller] = Deal(_name, _product.price, _seller, _buyer, false);\n        emit DealCreated(_name, _product.price, _seller, _buyer);\n        return true;\n    }\n\n    function productCount() public view returns (uint count) {\n        count = productIndex.length;\n    }\n    function auctionCount() public view returns (uint count) {\n        count = auctions.length;\n    }\n\n    function clearDeal(address _seller) public {\n        return delete deals[_seller];\n    }\n\n    function auctionFactory(\n        uint _startBlock,\n        uint _endBlock,\n        string memory _name,\n        uint _price,\n        address _beneficiary,\n        address _owner,\n        address _token\n    )\n        internal\n    {\n        // need to create contract with these parameters\n        address NewAuction = address(new ProductAutcion(_startBlock, _endBlock, _name, _price, _beneficiary, _owner, _token));\n        auctionsMapping[_name] = NewAuction;\n        auctions.push(NewAuction);\n    }\n}\n\ncontract ProductAutcion {\n    using SafeMath for uint;\n\n    VSTToken Token;\n    address public productAuction;\n    // Auction state\n    uint public startBlock;\n    uint public endBlock;\n    string public name;\n    uint public price;\n    address public highestBidder;\n    uint public highestBid;\n    address owner;\n    address public beneficiary;\n    address store;\n    // bidders funds\n    mapping(address => uint) public pendingReturns;\n\n    constructor(\n        uint _startBlock,\n        uint _endBlock,\n        string memory _name,\n        uint _price,\n        address _beneficiary,\n        address _owner,\n        address _token\n    )\n        public\n    {\n        require(_startBlock < _endBlock, \"Auction start time is greater than end time\");\n        require(_startBlock <= block.number, \"Incorrect start time\");\n        require(_owner != address(0), \"Owner not specified\");\n\n        productAuction = address(this);\n        Token = VSTToken(_token);\n        startBlock = _startBlock;\n        endBlock = _endBlock;\n        name = _name;\n        price = _price;\n        beneficiary = _beneficiary;\n        owner = _owner;\n    }\n        // store users bids\n    function placeBid(uint tokenAmount) public onlyBeforeEnd {\n        // check balance\n        require(Token.balanceOf(msg.sender) >= price, 'Not enough funds');\n        // check highest bid, if less => revert\n        require(tokenAmount > highestBid, 'Bid is less then highest bid');\n        // bid should be > then price\n        require(tokenAmount > price, \"Bid should be bigger then initial price\");\n        // seller can't bid\n        require(msg.sender != beneficiary, 'Cant bid on own product');\n\n        Token.approve(productAuction, tokenAmount);\n        Token.transferFrom(msg.sender, productAuction, tokenAmount);\n        highestBid = tokenAmount;\n        highestBidder = msg.sender;\n        pendingReturns[msg.sender] += tokenAmount;\n\n    }\n        // withdraw funds\n    function claimTokens() public onlyAfterAuction {\n        uint balance = pendingReturns[msg.sender];\n        require(balance > 0, \"Nothing to transfer\");\n        pendingReturns[msg.sender] = 0;\n        if (msg.sender == highestBidder) {\n            Token.transfer(msg.sender, balance.sub(highestBid));\n        }\n        else {\n            Token.approve(msg.sender, balance);\n            Token.transferFrom(productAuction, msg.sender, balance);\n        }\n    }\n\n    function beneficiaryWithdraw() public onlyAfterAuction {\n        require(msg.sender == beneficiary, \"Only seller can claim tokens\");\n        // calc 5% commission\n        uint commission = highestBid.mul(5);\n        commission = commission.div(100);\n        // send to seller\n        Token.transfer(msg.sender, highestBid.sub(commission));\n        // send 5% to store\n        Token.transfer(owner, commission);\n    }\n\n    modifier onlyBeforeEnd {\n        require(block.number < endBlock, \"Auction has ended\");\n        _;\n    }\n\n    modifier onlyAfterAuction {\n        require(block.number > endBlock, \"Auction is not ended\");\n        _;\n    }\n\n\n\n}",
  "sourcePath": "/Users/roman/Documents/Projects/VST/contracts/Store.sol",
  "compiler": {
    "name": "solc",
    "version": "0.5.8+commit.23d335f2.Emscripten.clang"
  },
  "schemaVersion": "3.0.16",
  "updatedAt": "2019-10-24T10:56:06.865Z",
  "devdoc": {
    "methods": {}
  },
  "userdoc": {
    "methods": {}
  }
}