{
  "contractName": "VSTCrowdsale",
  "abi": [
    {
      "constant": true,
      "inputs": [],
      "name": "rate",
      "outputs": [
        {
          "name": "",
          "type": "uint256"
        }
      ],
      "payable": false,
      "stateMutability": "view",
      "type": "function"
    },
    {
      "constant": true,
      "inputs": [],
      "name": "weiRaised",
      "outputs": [
        {
          "name": "",
          "type": "uint256"
        }
      ],
      "payable": false,
      "stateMutability": "view",
      "type": "function"
    },
    {
      "constant": true,
      "inputs": [],
      "name": "wallet",
      "outputs": [
        {
          "name": "",
          "type": "address"
        }
      ],
      "payable": false,
      "stateMutability": "view",
      "type": "function"
    },
    {
      "constant": true,
      "inputs": [],
      "name": "tokensPurchased",
      "outputs": [
        {
          "name": "",
          "type": "uint256"
        }
      ],
      "payable": false,
      "stateMutability": "view",
      "type": "function"
    },
    {
      "constant": false,
      "inputs": [
        {
          "name": "beneficiary",
          "type": "address"
        }
      ],
      "name": "buyTokens",
      "outputs": [],
      "payable": true,
      "stateMutability": "payable",
      "type": "function"
    },
    {
      "constant": true,
      "inputs": [],
      "name": "userCounter",
      "outputs": [
        {
          "name": "",
          "type": "uint256"
        }
      ],
      "payable": false,
      "stateMutability": "view",
      "type": "function"
    },
    {
      "constant": true,
      "inputs": [],
      "name": "token",
      "outputs": [
        {
          "name": "",
          "type": "address"
        }
      ],
      "payable": false,
      "stateMutability": "view",
      "type": "function"
    },
    {
      "constant": true,
      "inputs": [],
      "name": "concString",
      "outputs": [
        {
          "name": "",
          "type": "string"
        }
      ],
      "payable": false,
      "stateMutability": "view",
      "type": "function"
    },
    {
      "inputs": [
        {
          "name": "_rate",
          "type": "uint256"
        },
        {
          "name": "_wallet",
          "type": "address"
        },
        {
          "name": "_token",
          "type": "address"
        },
        {
          "name": "storeAddress",
          "type": "address"
        }
      ],
      "payable": false,
      "stateMutability": "nonpayable",
      "type": "constructor"
    },
    {
      "payable": true,
      "stateMutability": "payable",
      "type": "fallback"
    },
    {
      "anonymous": false,
      "inputs": [
        {
          "indexed": true,
          "name": "purchaser",
          "type": "address"
        },
        {
          "indexed": true,
          "name": "beneficiary",
          "type": "address"
        },
        {
          "indexed": false,
          "name": "value",
          "type": "uint256"
        },
        {
          "indexed": false,
          "name": "amount",
          "type": "uint256"
        }
      ],
      "name": "TokensPurchased",
      "type": "event"
    }
  ],
  "bytecode": "0x608060405234801561001057600080fd5b50604051608080610cd18339810180604052608081101561003057600080fd5b50805160208201516040830151606090930151600160005591929091838383826100bb57604080517f08c379a000000000000000000000000000000000000000000000000000000000815260206004820152601460248201527f43726f776473616c653a20726174652069732030000000000000000000000000604482015290519081900360640190fd5b6001600160a01b03821661011a576040517f08c379a0000000000000000000000000000000000000000000000000000000008152600401808060200182810382526025815260200180610cac6025913960400191505060405180910390fd5b6001600160a01b038116610179576040517f08c379a0000000000000000000000000000000000000000000000000000000008152600401808060200182810382526024815260200180610c886024913960400191505060405180910390fd5b600392909255600280546001600160a01b03199081166001600160a01b03938416179091556001805482169383169390931790925560058054909216921691909117905550610ab791508190506101d16000396000f3fe60806040526004361061007b5760003560e01c8063ec8ac4d81161004e578063ec8ac4d814610108578063f0c37a591461012e578063fc0c546a14610143578063fe02585d146101585761007b565b80632c4e722e146100865780634042b66f146100ad578063521eb273146100c2578063cc4d819c146100f3575b610084336101e2565b005b34801561009257600080fd5b5061009b6102e9565b60408051918252519081900360200190f35b3480156100b957600080fd5b5061009b6102f0565b3480156100ce57600080fd5b506100d76102f6565b604080516001600160a01b039092168252519081900360200190f35b3480156100ff57600080fd5b5061009b610305565b6100846004803603602081101561011e57600080fd5b50356001600160a01b03166101e2565b34801561013a57600080fd5b5061009b61030b565b34801561014f57600080fd5b506100d7610311565b34801561016457600080fd5b5061016d610320565b6040805160208082528351818301528351919283929083019185019080838360005b838110156101a757818101518382015260200161018f565b50505050905090810190601f1680156101d45780820380516001836020036101000a031916815260200191505b509250505060405180910390f35b6000805460010190819055346101f883826103ae565b60006102038261044b565b600454909150610219908363ffffffff61046a16565b60045561022684826104ce565b604080518381526020810183905281516001600160a01b0387169233927f6faf93231a456e552dbc9961f58d9713ee4f2e69d15f1975b050ef0911053a7b929081900390910190a361027884836104d8565b6102806105e7565b61028a84836102e5565b505060005481146102e55760408051600160e51b62461bcd02815260206004820152601f60248201527f5265656e7472616e637947756172643a207265656e7472616e742063616c6c00604482015290519081900360640190fd5b5050565b6003545b90565b60045490565b6002546001600160a01b031690565b60075481565b60065481565b6001546001600160a01b031690565b6008805460408051602060026001851615610100026000190190941693909304601f810184900484028201840190925281815292918301828280156103a65780601f1061037b576101008083540402835291602001916103a6565b820191906000526020600020905b81548152906001019060200180831161038957829003601f168201915b505050505081565b6001600160a01b0382166103f657604051600160e51b62461bcd02815260040180806020018281038252602a815260200180610a62602a913960400191505060405180910390fd5b806102e55760408051600160e51b62461bcd02815260206004820152601960248201527f43726f776473616c653a20776569416d6f756e74206973203000000000000000604482015290519081900360640190fd5b60006104626003548361062390919063ffffffff16565b90505b919050565b6000828201838110156104c75760408051600160e51b62461bcd02815260206004820152601b60248201527f536166654d6174683a206164646974696f6e206f766572666c6f770000000000604482015290519081900360640190fd5b9392505050565b6102e58282610690565b6006805460010190556003546104f590829063ffffffff61062316565b60075560065460609061050790610777565b9050610533604051806040016040528060058152602001600160d81b6453746f636b028152508261083b565b8051610547916008916020909101906109c9565b5060088054604080516020601f600260001961010060018816150201909516949094049384018190048102820181019092528281526105e293909290918301828280156105d55780601f106105aa576101008083540402835291602001916105d5565b820191906000526020600020905b8154815290600101906020018083116105b857829003601f168201915b50505050506007546108f6565b505050565b6002546040516001600160a01b03909116903480156108fc02916000818181858888f19350505050158015610620573d6000803e3d6000fd5b50565b600080821161067c5760408051600160e51b62461bcd02815260206004820152601a60248201527f536166654d6174683a206469766973696f6e206279207a65726f000000000000604482015290519081900360640190fd5b600082848161068757fe5b04949350505050565b610698610311565b6001600160a01b03166340c10f1983836040518363ffffffff1660e01b815260040180836001600160a01b03166001600160a01b0316815260200182815260200192505050602060405180830381600087803b1580156106f757600080fd5b505af115801561070b573d6000803e3d6000fd5b505050506040513d602081101561072157600080fd5b50516102e55760408051600160e51b62461bcd02815260206004820152601f60248201527f4d696e74656443726f776473616c653a206d696e74696e67206661696c656400604482015290519081900360640190fd5b60608161079f57506040805180820190915260018152600160fc1b6003026020820152610465565b8160005b81156107b757600101600a820491506107a3565b6060816040519080825280601f01601f1916602001820160405280156107e4576020820181803883390190505b50905060001982015b851561083257600a860660300160f81b8282806001900393508151811061081057fe5b60200101906001600160f81b031916908160001a905350600a860495506107ed565b50949350505050565b606082826040516020018083805190602001908083835b602083106108715780518252601f199092019160209182019101610852565b51815160209384036101000a600019018019909216911617905285519190930192850191508083835b602083106108b95780518252601f19909201916020918201910161089a565b6001836020036101000a03801982511681845116808217855250505050505090500192505050604051602081830303815290604052905092915050565b60055460408051600160e01b63172c087f02815260248101849052600481019182528451604482015284516001600160a01b039093169263172c087f9286928692829160640190602086019080838360005b83811015610960578181015183820152602001610948565b50505050905090810190601f16801561098d5780820380516001836020036101000a031916815260200191505b509350505050600060405180830381600087803b1580156109ad57600080fd5b505af11580156109c1573d6000803e3d6000fd5b505050505050565b828054600181600116156101000203166002900490600052602060002090601f016020900481019282601f10610a0a57805160ff1916838001178555610a37565b82800160010185558215610a37579182015b82811115610a37578251825591602001919060010190610a1c565b50610a43929150610a47565b5090565b6102ed91905b80821115610a435760008155600101610a4d56fe43726f776473616c653a2062656e656669636961727920697320746865207a65726f2061646472657373a165627a7a72305820d66c60674aeb9f432a14db30c8c1dad6f74de34c992a30668b230f8d0c782df1002943726f776473616c653a20746f6b656e20697320746865207a65726f206164647265737343726f776473616c653a2077616c6c657420697320746865207a65726f2061646472657373",
  "source": "pragma solidity ^0.5.0;\n\nimport \"@openzeppelin/contracts/crowdsale/Crowdsale.sol\";\nimport \"@openzeppelin/contracts/crowdsale/emission/MintedCrowdsale.sol\";\nimport \"./Store.sol\";\n\ncontract VSTCrowdsale is Crowdsale, MintedCrowdsale {\n        Store internal StoreContract;\n          // User transactions counter\n        uint256 public userCounter;\n\n        // Token ammount purchased\n        uint256 public tokensPurchased;\n\n        string public concString;\n\n    constructor (uint256 _rate, address payable _wallet, IERC20 _token, address payable storeAddress)\n    Crowdsale(_rate, _wallet, _token)\n    public {\n        StoreContract = Store(storeAddress);\n    }\n        /* When the user i (Crowdsale will increment this value each time when someone buy VST)\n        will buy n VST tokens, the Crowdsale contract will sell the product Stock + i with the price n VST\n        (e.g.: Stock23 will cost 20 VST)\n        **/\n\n    // overriding Crowdsale token issue rate\n    function _getTokenAmount(uint256 weiAmount) internal view returns (uint256) {\n        return weiAmount.div(_rate);\n    }\n\n    function _updatePurchasingState(address beneficiary, uint256 weiAmount) internal {\n        userCounter++;\n        tokensPurchased = weiAmount.div(_rate);\n        // invoke Store.sell method with _name, _price;\n        // where string _name = 'userCounter' + 'tokensPurchased'\n        string memory userCounterString = uint2str(userCounter);\n        concString = appendValues('Stock', userCounterString);\n        sellProductOnTokenPurchase(concString, tokensPurchased);\n    }\n    // concatinate 2 strings\n    function appendValues(string memory _str1, string memory _str2) internal pure returns (string memory) {\n        return string(abi.encodePacked(_str1, _str2));\n    }\n\n    function sellProductOnTokenPurchase(string memory _name, uint256 _price) internal {\n        StoreContract.sellProduct(_name, _price);\n    }\n    // helper function transform uint to sting for concatination\n    function uint2str(uint _i) internal pure returns (string memory _uintAsString) {\n        if (_i == 0) {\n            return \"0\";\n        }\n        uint j = _i;\n        uint len;\n        while (j != 0) {\n            len++;\n            j /= 10;\n        }\n        bytes memory bstr = new bytes(len);\n        uint k = len - 1;\n        while (_i != 0) {\n            bstr[k--] = byte(uint8(48 + _i % 10));\n            _i /= 10;\n        }\n        return string(bstr);\n    }\n}\n",
  "sourcePath": "/Users/roman/Documents/Projects/VST/contracts/VSTCrowdsale.sol",
  "compiler": {
    "name": "solc",
    "version": "0.5.8+commit.23d335f2.Emscripten.clang"
  },
  "schemaVersion": "3.0.16",
  "updatedAt": "2019-10-24T12:00:25.123Z",
  "devdoc": {
    "methods": {
      "buyTokens(address)": {
        "details": "low level token purchase ***DO NOT OVERRIDE*** This function has a non-reentrancy guard, so it shouldn't be called by another `nonReentrant` function.",
        "params": {
          "beneficiary": "Recipient of the token purchase"
        }
      },
      "rate()": {
        "return": "the number of token units a buyer gets per wei."
      },
      "token()": {
        "return": "the token being sold."
      },
      "wallet()": {
        "return": "the address where funds are collected."
      },
      "weiRaised()": {
        "return": "the amount of wei raised."
      }
    }
  },
  "userdoc": {
    "methods": {}
  }
}