{
  "contractName": "Store",
  "abi": [
    {
      "constant": true,
      "inputs": [
        {
          "name": "",
          "type": "string"
        }
      ],
      "name": "products",
      "outputs": [
        {
          "name": "name",
          "type": "string"
        },
        {
          "name": "price",
          "type": "uint256"
        },
        {
          "name": "owner",
          "type": "address"
        },
        {
          "name": "purchased",
          "type": "bool"
        }
      ],
      "payable": false,
      "stateMutability": "view",
      "type": "function"
    },
    {
      "constant": true,
      "inputs": [],
      "name": "name",
      "outputs": [
        {
          "name": "",
          "type": "string"
        }
      ],
      "payable": false,
      "stateMutability": "view",
      "type": "function"
    },
    {
      "constant": false,
      "inputs": [
        {
          "name": "spender",
          "type": "address"
        },
        {
          "name": "value",
          "type": "uint256"
        }
      ],
      "name": "approve",
      "outputs": [
        {
          "name": "",
          "type": "bool"
        }
      ],
      "payable": false,
      "stateMutability": "nonpayable",
      "type": "function"
    },
    {
      "constant": true,
      "inputs": [],
      "name": "totalSupply",
      "outputs": [
        {
          "name": "",
          "type": "uint256"
        }
      ],
      "payable": false,
      "stateMutability": "view",
      "type": "function"
    },
    {
      "constant": false,
      "inputs": [
        {
          "name": "sender",
          "type": "address"
        },
        {
          "name": "recipient",
          "type": "address"
        },
        {
          "name": "amount",
          "type": "uint256"
        }
      ],
      "name": "transferFrom",
      "outputs": [
        {
          "name": "",
          "type": "bool"
        }
      ],
      "payable": false,
      "stateMutability": "nonpayable",
      "type": "function"
    },
    {
      "constant": true,
      "inputs": [],
      "name": "decimals",
      "outputs": [
        {
          "name": "",
          "type": "uint8"
        }
      ],
      "payable": false,
      "stateMutability": "view",
      "type": "function"
    },
    {
      "constant": true,
      "inputs": [
        {
          "name": "",
          "type": "uint256"
        }
      ],
      "name": "productIndex",
      "outputs": [
        {
          "name": "",
          "type": "string"
        }
      ],
      "payable": false,
      "stateMutability": "view",
      "type": "function"
    },
    {
      "constant": false,
      "inputs": [
        {
          "name": "spender",
          "type": "address"
        },
        {
          "name": "addedValue",
          "type": "uint256"
        }
      ],
      "name": "increaseAllowance",
      "outputs": [
        {
          "name": "",
          "type": "bool"
        }
      ],
      "payable": false,
      "stateMutability": "nonpayable",
      "type": "function"
    },
    {
      "constant": true,
      "inputs": [
        {
          "name": "account",
          "type": "address"
        }
      ],
      "name": "balanceOf",
      "outputs": [
        {
          "name": "",
          "type": "uint256"
        }
      ],
      "payable": false,
      "stateMutability": "view",
      "type": "function"
    },
    {
      "constant": true,
      "inputs": [],
      "name": "symbol",
      "outputs": [
        {
          "name": "",
          "type": "string"
        }
      ],
      "payable": false,
      "stateMutability": "view",
      "type": "function"
    },
    {
      "constant": false,
      "inputs": [
        {
          "name": "spender",
          "type": "address"
        },
        {
          "name": "subtractedValue",
          "type": "uint256"
        }
      ],
      "name": "decreaseAllowance",
      "outputs": [
        {
          "name": "",
          "type": "bool"
        }
      ],
      "payable": false,
      "stateMutability": "nonpayable",
      "type": "function"
    },
    {
      "constant": false,
      "inputs": [
        {
          "name": "recipient",
          "type": "address"
        },
        {
          "name": "amount",
          "type": "uint256"
        }
      ],
      "name": "transfer",
      "outputs": [
        {
          "name": "",
          "type": "bool"
        }
      ],
      "payable": false,
      "stateMutability": "nonpayable",
      "type": "function"
    },
    {
      "constant": true,
      "inputs": [
        {
          "name": "owner",
          "type": "address"
        },
        {
          "name": "spender",
          "type": "address"
        }
      ],
      "name": "allowance",
      "outputs": [
        {
          "name": "",
          "type": "uint256"
        }
      ],
      "payable": false,
      "stateMutability": "view",
      "type": "function"
    },
    {
      "anonymous": false,
      "inputs": [
        {
          "indexed": false,
          "name": "name",
          "type": "string"
        },
        {
          "indexed": false,
          "name": "price",
          "type": "uint256"
        },
        {
          "indexed": false,
          "name": "owner",
          "type": "address"
        },
        {
          "indexed": false,
          "name": "purchased",
          "type": "bool"
        }
      ],
      "name": "ProductCreated",
      "type": "event"
    },
    {
      "anonymous": false,
      "inputs": [
        {
          "indexed": false,
          "name": "name",
          "type": "string"
        },
        {
          "indexed": false,
          "name": "price",
          "type": "uint256"
        },
        {
          "indexed": false,
          "name": "owner",
          "type": "address"
        },
        {
          "indexed": false,
          "name": "purchased",
          "type": "bool"
        }
      ],
      "name": "ProductPurchased",
      "type": "event"
    },
    {
      "anonymous": false,
      "inputs": [
        {
          "indexed": true,
          "name": "from",
          "type": "address"
        },
        {
          "indexed": true,
          "name": "to",
          "type": "address"
        },
        {
          "indexed": false,
          "name": "value",
          "type": "uint256"
        }
      ],
      "name": "Transfer",
      "type": "event"
    },
    {
      "anonymous": false,
      "inputs": [
        {
          "indexed": true,
          "name": "owner",
          "type": "address"
        },
        {
          "indexed": true,
          "name": "spender",
          "type": "address"
        },
        {
          "indexed": false,
          "name": "value",
          "type": "uint256"
        }
      ],
      "name": "Approval",
      "type": "event"
    },
    {
      "constant": false,
      "inputs": [
        {
          "name": "_name",
          "type": "string"
        },
        {
          "name": "_price",
          "type": "uint256"
        }
      ],
      "name": "sellProduct",
      "outputs": [],
      "payable": false,
      "stateMutability": "nonpayable",
      "type": "function"
    },
    {
      "constant": false,
      "inputs": [
        {
          "name": "_name",
          "type": "string"
        }
      ],
      "name": "purchaseProduct",
      "outputs": [],
      "payable": true,
      "stateMutability": "payable",
      "type": "function"
    },
    {
      "constant": true,
      "inputs": [],
      "name": "productCount",
      "outputs": [
        {
          "name": "count",
          "type": "uint256"
        }
      ],
      "payable": false,
      "stateMutability": "view",
      "type": "function"
    }
  ],
  "bytecode": "0x600960808181527f5669727453746f7265000000000000000000000000000000000000000000000060a0908152610100604052600360c08181527f565354000000000000000000000000000000000000000000000000000000000060e052683635c9adc5dea00000949092601292859285928592620000819290919062000263565b5081516200009790600490602085019062000263565b506005805460ff191660ff9290921691909117905550620000c290503385620000cc602090811b901c565b5050505062000308565b6001600160a01b0382166200014257604080517f08c379a000000000000000000000000000000000000000000000000000000000815260206004820152601f60248201527f45524332303a206d696e7420746f20746865207a65726f206164647265737300604482015290519081900360640190fd5b6200015e81600254620001e760201b620013001790919060201c565b6002556001600160a01b038216600090815260208181526040909120546200019191839062001300620001e7821b17901c565b6001600160a01b0383166000818152602081815260408083209490945583518581529351929391927fddf252ad1be2c89b69c2b068fc378daa952ba7f163c4a11628f55a4df523b3ef9281900390910190a35050565b6000828201838110156200025c57604080517f08c379a000000000000000000000000000000000000000000000000000000000815260206004820152601b60248201527f536166654d6174683a206164646974696f6e206f766572666c6f770000000000604482015290519081900360640190fd5b9392505050565b828054600181600116156101000203166002900490600052602060002090601f016020900481019282601f10620002a657805160ff1916838001178555620002d6565b82800160010185558215620002d6579182015b82811115620002d6578251825591602001919060010190620002b9565b50620002e4929150620002e8565b5090565b6200030591905b80821115620002e45760008155600101620002ef565b90565b61153080620003186000396000f3fe6080604052600436106100f35760003560e01c8063322d5a331161008a578063a457c2d711610059578063a457c2d7146105c2578063a9059cbb146105fb578063dd62ed3e14610634578063e0f6ef871461066f576100f3565b8063322d5a3314610517578063395093511461054157806370a082311461057a57806395d89b41146105ad576100f3565b806318160ddd116100c657806318160ddd146103dc57806319f929261461040357806323b872dd146104a9578063313ce567146104ec576100f3565b80630186a423146100f857806306fdde031461024e578063095ea7b3146102d8578063172c087f14610325575b600080fd5b34801561010457600080fd5b506101ab6004803603602081101561011b57600080fd5b81019060208101813564010000000081111561013657600080fd5b82018360208201111561014857600080fd5b8035906020019184600183028401116401000000008311171561016a57600080fd5b91908080601f016020809104026020016040519081016040528093929190818152602001838380828437600092019190915250929550610684945050505050565b6040518080602001858152602001846001600160a01b03166001600160a01b0316815260200183151515158152602001828103825286818151815260200191508051906020019080838360005b838110156102105781810151838201526020016101f8565b50505050905090810190601f16801561023d5780820380516001836020036101000a031916815260200191505b509550505050505060405180910390f35b34801561025a57600080fd5b50610263610752565b6040805160208082528351818301528351919283929083019185019080838360005b8381101561029d578181015183820152602001610285565b50505050905090810190601f1680156102ca5780820380516001836020036101000a031916815260200191505b509250505060405180910390f35b3480156102e457600080fd5b50610311600480360360408110156102fb57600080fd5b506001600160a01b0381351690602001356107e9565b604080519115158252519081900360200190f35b34801561033157600080fd5b506103da6004803603604081101561034857600080fd5b81019060208101813564010000000081111561036357600080fd5b82018360208201111561037557600080fd5b8035906020019184600183028401116401000000008311171561039757600080fd5b91908080601f01602080910402602001604051908101604052809392919081815260200183838082843760009201919091525092955050913592506107ff915050565b005b3480156103e857600080fd5b506103f1610acb565b60408051918252519081900360200190f35b6103da6004803603602081101561041957600080fd5b81019060208101813564010000000081111561043457600080fd5b82018360208201111561044657600080fd5b8035906020019184600183028401116401000000008311171561046857600080fd5b91908080601f016020809104026020016040519081016040528093929190818152602001838380828437600092019190915250929550610ad1945050505050565b3480156104b557600080fd5b50610311600480360360608110156104cc57600080fd5b506001600160a01b03813581169160208101359091169060400135610e2e565b3480156104f857600080fd5b50610501610e85565b6040805160ff9092168252519081900360200190f35b34801561052357600080fd5b506102636004803603602081101561053a57600080fd5b5035610e8e565b34801561054d57600080fd5b506103116004803603604081101561056457600080fd5b506001600160a01b038135169060200135610f34565b34801561058657600080fd5b506103f16004803603602081101561059d57600080fd5b50356001600160a01b0316610f70565b3480156105b957600080fd5b50610263610f8b565b3480156105ce57600080fd5b50610311600480360360408110156105e557600080fd5b506001600160a01b038135169060200135610fec565b34801561060757600080fd5b506103116004803603604081101561061e57600080fd5b506001600160a01b038135169060200135611028565b34801561064057600080fd5b506103f16004803603604081101561065757600080fd5b506001600160a01b0381358116916020013516611035565b34801561067b57600080fd5b506103f1611060565b805160208183018101805160068252928201938201939093209190925280546040805160026001841615610100026000190190931692909204601f81018590048502830185019091528082529192909183918301828280156107275780601f106106fc57610100808354040283529160200191610727565b820191906000526020600020905b81548152906001019060200180831161070a57829003601f168201915b5050505060018301546002909301549192916001600160a01b0381169150600160a01b900460ff1684565b60038054604080516020601f60026000196101006001881615020190951694909404938401819004810282018101909252828152606093909290918301828280156107de5780601f106107b3576101008083540402835291602001916107de565b820191906000526020600020905b8154815290600101906020018083116107c157829003601f168201915b505050505090505b90565b60006107f6338484611066565b50600192915050565b60008251116108585760408051600160e51b62461bcd02815260206004820152600c60248201527f496e76616c6964206e616d650000000000000000000000000000000000000000604482015290519081900360640190fd5b600081116108b05760408051600160e51b62461bcd02815260206004820152600d60248201527f496e76616c696420707269636500000000000000000000000000000000000000604482015290519081900360640190fd5b6040518060800160405280838152602001828152602001336001600160a01b03168152602001600015158152506006836040518082805190602001908083835b6020831061090f5780518252601f1990920191602091820191016108f0565b51815160209384036101000a600019018019909216911617905292019485525060405193849003810190932084518051919461095094508593500190611364565b506020828101516001808401919091556040840151600290930180546060909501511515600160a01b0274ff0000000000000000000000000000000000000000196001600160a01b039095166001600160a01b031990961695909517939093169390931790915560078054928301808255600091909152845190926109fd927fa66cc928b5edb82af9bd49922954155ab7b0942694bea4ce44661d9a8736c6889091019190860190611364565b50507f8075e725aa7828dccdbc60d5b4692e5ecb19c1ec33df4d79dc1129227cea39a282823360006040518080602001858152602001846001600160a01b03166001600160a01b0316815260200183151515158152602001828103825286818151815260200191508051906020019080838360005b83811015610a8a578181015183820152602001610a72565b50505050905090810190601f168015610ab75780820380516001836020036101000a031916815260200191505b509550505050505060405180910390a15050565b60025490565b610ad96113e2565b6006826040518082805190602001908083835b60208310610b0b5780518252601f199092019160209182019101610aec565b518151600019602094850361010090810a82019283169219939093169190911790925294909201968752604080519788900382018820805460a0601f60026001841615909902909601909116969096049384018390049092028801850190526080870182815290955086945092859250840182828015610bcc5780601f10610ba157610100808354040283529160200191610bcc565b820191906000526020600020905b815481529060010190602001808311610baf57829003601f168201915b5050509183525050600182015460208201526002909101546001600160a01b03808216604080850191909152600160a01b90920460ff161515606090930192909252820151919250339082161415610c6e5760408051600160e51b62461bcd02815260206004820152601960248201527f43616e742062757920796f7572206f776e2070726f6475637400000000000000604482015290519081900360640190fd5b336000610c7a82610f70565b90508360200151811015610cd85760408051600160e51b62461bcd02815260206004820152601060248201527f4e6f7420656e6f7567682066756e647300000000000000000000000000000000604482015290519081900360640190fd5b610ce6838560200151611028565b5083516020808601516040805180840183905233918101829052600160608201819052608080835286519083015285517f684f6cb1148636eef80c272a709a0d4153ae81062cf0c3f521bb4d44259c61289695919291829160a083019188019080838360005b83811015610d64578181015183820152602001610d4c565b50505050905090810190601f168015610d915780820380516001836020036101000a031916815260200191505b509550505050505060405180910390a16006856040518082805190602001908083835b60208310610dd35780518252601f199092019160209182019101610db4565b51815160209384036101000a60001901801990921691161790529201948552506040519384900301909220915060009050610e0e8282611415565b506000600182015560020180546001600160a81b03191690555050505050565b6000610e3b848484611158565b6001600160a01b038416600090815260016020908152604080832033808552925290912054610e7b918691610e76908663ffffffff6112a016565b611066565b5060019392505050565b60055460ff1690565b60078181548110610e9b57fe5b600091825260209182902001805460408051601f6002600019610100600187161502019094169390930492830185900485028101850190915281815293509091830182828015610f2c5780601f10610f0157610100808354040283529160200191610f2c565b820191906000526020600020905b815481529060010190602001808311610f0f57829003601f168201915b505050505081565b3360008181526001602090815260408083206001600160a01b038716845290915281205490916107f6918590610e76908663ffffffff61130016565b6001600160a01b031660009081526020819052604090205490565b60048054604080516020601f60026000196101006001881615020190951694909404938401819004810282018101909252828152606093909290918301828280156107de5780601f106107b3576101008083540402835291602001916107de565b3360008181526001602090815260408083206001600160a01b038716845290915281205490916107f6918590610e76908663ffffffff6112a016565b60006107f6338484611158565b6001600160a01b03918216600090815260016020908152604080832093909416825291909152205490565b60075490565b6001600160a01b0383166110ae57604051600160e51b62461bcd0281526004018080602001828103825260248152602001806114e16024913960400191505060405180910390fd5b6001600160a01b0382166110f657604051600160e51b62461bcd02815260040180806020018281038252602281526020018061149a6022913960400191505060405180910390fd5b6001600160a01b03808416600081815260016020908152604080832094871680845294825291829020859055815185815291517f8c5be1e5ebec7d5bd14f71427d1e84f3dd0314c0f7b2291e5b200ac8c7c3b9259281900390910190a3505050565b6001600160a01b0383166111a057604051600160e51b62461bcd0281526004018080602001828103825260258152602001806114bc6025913960400191505060405180910390fd5b6001600160a01b0382166111e857604051600160e51b62461bcd0281526004018080602001828103825260238152602001806114776023913960400191505060405180910390fd5b6001600160a01b038316600090815260208190526040902054611211908263ffffffff6112a016565b6001600160a01b038085166000908152602081905260408082209390935590841681522054611246908263ffffffff61130016565b6001600160a01b038084166000818152602081815260409182902094909455805185815290519193928716927fddf252ad1be2c89b69c2b068fc378daa952ba7f163c4a11628f55a4df523b3ef92918290030190a3505050565b6000828211156112fa5760408051600160e51b62461bcd02815260206004820152601e60248201527f536166654d6174683a207375627472616374696f6e206f766572666c6f770000604482015290519081900360640190fd5b50900390565b60008282018381101561135d5760408051600160e51b62461bcd02815260206004820152601b60248201527f536166654d6174683a206164646974696f6e206f766572666c6f770000000000604482015290519081900360640190fd5b9392505050565b828054600181600116156101000203166002900490600052602060002090601f016020900481019282601f106113a557805160ff19168380011785556113d2565b828001600101855582156113d2579182015b828111156113d25782518255916020019190600101906113b7565b506113de92915061145c565b5090565b6040518060800160405280606081526020016000815260200160006001600160a01b031681526020016000151581525090565b50805460018160011615610100020316600290046000825580601f1061143b5750611459565b601f016020900490600052602060002090810190611459919061145c565b50565b6107e691905b808211156113de576000815560010161146256fe45524332303a207472616e7366657220746f20746865207a65726f206164647265737345524332303a20617070726f766520746f20746865207a65726f206164647265737345524332303a207472616e736665722066726f6d20746865207a65726f206164647265737345524332303a20617070726f76652066726f6d20746865207a65726f2061646472657373a165627a7a7230582017a606fdd6a4ca317d159ba9d878b2ae8c2eba8b783da4346c8bcda355ff047a0029",
  "source": "pragma solidity ^0.5.0;\n\nimport './VSTToken.sol';\n\n/**\nWrite a Store contract with following methods:\n sell(_productName, _price) and buy(_productName).\n Invoking of sell method will record in smart contract the price of the product at which you can buy this product.\n Invoking the buy method will remove the product from smart contract and will transfer the corresponding amount of VST tokens from buyer to seller.\n */\ncontract Store is VSTToken(1000 ether, \"VirtStore\",\"VST\",18) {\n    mapping(string => Product) public products;\n    string[] public productIndex;\n    struct Product {\n        string name;\n        uint price;\n        address payable owner;\n        bool purchased;\n    }\n\n    event ProductCreated(\n        string name,\n        uint price,\n        address payable owner,\n        bool purchased\n    );\n\n    event ProductPurchased(\n        string name,\n        uint price,\n        address payable owner,\n        bool purchased\n    );\n\n    function sellProduct(string memory _name, uint _price) public {\n        // Require a valid name\n        require(bytes(_name).length > 0, \"Invalid name\");\n        // Require a valid price\n        require(_price > 0, \"Invalid price\");\n        // Increment product count\n        // Create the product\n        products[_name] = Product(_name, _price, msg.sender, false);\n        // add index to an array\n        productIndex.push(_name);\n        // Trigger an event\n        emit ProductCreated(_name, _price, msg.sender, false);\n    }\n\n    function purchaseProduct(string memory _name) public payable {\n        // Fetch the product\n        Product memory _product = products[_name];\n        // Fetch the owner\n        address payable _seller = _product.owner;\n        // Require that the buyer is not the seller\n        require(_seller != msg.sender, \"Cant buy your own product\");\n        address payable _buyer = msg.sender;\n        uint balance = balanceOf(_buyer);\n        require(balance >= _product.price, \"Not enough funds\");\n        transfer(_seller, _product.price);\n        // Trigger an event\n        emit ProductPurchased(_product.name, _product.price, msg.sender, true);\n        // Delete the product => set its values to 0\n        delete products[_name];\n        // remove _name from an array\n    }\n\n    function productCount() public view returns (uint count) {\n        count = productIndex.length;\n    }\n}",
  "sourcePath": "/Users/roman/Documents/Projects/VST/contracts/Store.sol",
  "compiler": {
    "name": "solc",
    "version": "0.5.8+commit.23d335f2.Emscripten.clang"
  },
  "schemaVersion": "3.0.16",
  "updatedAt": "2019-10-08T14:08:21.148Z",
  "devdoc": {
    "methods": {
      "allowance(address,address)": {
        "details": "See `IERC20.allowance`."
      },
      "approve(address,uint256)": {
        "details": "See `IERC20.approve`.     * Requirements:     * - `spender` cannot be the zero address."
      },
      "balanceOf(address)": {
        "details": "See `IERC20.balanceOf`."
      },
      "decimals()": {
        "details": "Returns the number of decimals used to get its user representation. For example, if `decimals` equals `2`, a balance of `505` tokens should be displayed to a user as `5,05` (`505 / 10 ** 2`).     * Tokens usually opt for a value of 18, imitating the relationship between Ether and Wei.     * > Note that this information is only used for _display_ purposes: it in no way affects any of the arithmetic of the contract, including `IERC20.balanceOf` and `IERC20.transfer`."
      },
      "decreaseAllowance(address,uint256)": {
        "details": "Atomically decreases the allowance granted to `spender` by the caller.     * This is an alternative to `approve` that can be used as a mitigation for problems described in `IERC20.approve`.     * Emits an `Approval` event indicating the updated allowance.     * Requirements:     * - `spender` cannot be the zero address. - `spender` must have allowance for the caller of at least `subtractedValue`."
      },
      "increaseAllowance(address,uint256)": {
        "details": "Atomically increases the allowance granted to `spender` by the caller.     * This is an alternative to `approve` that can be used as a mitigation for problems described in `IERC20.approve`.     * Emits an `Approval` event indicating the updated allowance.     * Requirements:     * - `spender` cannot be the zero address."
      },
      "name()": {
        "details": "Returns the name of the token."
      },
      "symbol()": {
        "details": "Returns the symbol of the token, usually a shorter version of the name."
      },
      "totalSupply()": {
        "details": "See `IERC20.totalSupply`."
      },
      "transfer(address,uint256)": {
        "details": "See `IERC20.transfer`.     * Requirements:     * - `recipient` cannot be the zero address. - the caller must have a balance of at least `amount`."
      },
      "transferFrom(address,address,uint256)": {
        "details": "See `IERC20.transferFrom`.     * Emits an `Approval` event indicating the updated allowance. This is not required by the EIP. See the note at the beginning of `ERC20`;     * Requirements: - `sender` and `recipient` cannot be the zero address. - `sender` must have a balance of at least `value`. - the caller must have allowance for `sender`'s tokens of at least `amount`."
      }
    }
  },
  "userdoc": {
    "methods": {},
    "notice": "Write a Store contract with following methods: sell(_productName, _price) and buy(_productName). Invoking of sell method will record in smart contract the price of the product at which you can buy this product. Invoking the buy method will remove the product from smart contract and will transfer the corresponding amount of VST tokens from buyer to seller."
  }
}