{
  "contractName": "Store",
  "abi": [
    {
      "constant": true,
      "inputs": [
        {
          "name": "",
          "type": "string"
        }
      ],
      "name": "products",
      "outputs": [
        {
          "name": "name",
          "type": "string"
        },
        {
          "name": "price",
          "type": "uint256"
        },
        {
          "name": "owner",
          "type": "address"
        },
        {
          "name": "purchased",
          "type": "bool"
        }
      ],
      "payable": false,
      "stateMutability": "view",
      "type": "function"
    },
    {
      "constant": true,
      "inputs": [
        {
          "name": "",
          "type": "address"
        }
      ],
      "name": "deals",
      "outputs": [
        {
          "name": "name",
          "type": "string"
        },
        {
          "name": "price",
          "type": "uint256"
        },
        {
          "name": "seller",
          "type": "address"
        },
        {
          "name": "buyer",
          "type": "address"
        },
        {
          "name": "isDone",
          "type": "bool"
        }
      ],
      "payable": false,
      "stateMutability": "view",
      "type": "function"
    },
    {
      "constant": true,
      "inputs": [
        {
          "name": "",
          "type": "uint256"
        }
      ],
      "name": "productIndex",
      "outputs": [
        {
          "name": "",
          "type": "string"
        }
      ],
      "payable": false,
      "stateMutability": "view",
      "type": "function"
    },
    {
      "constant": true,
      "inputs": [
        {
          "name": "",
          "type": "uint256"
        }
      ],
      "name": "auctions",
      "outputs": [
        {
          "name": "",
          "type": "address"
        }
      ],
      "payable": false,
      "stateMutability": "view",
      "type": "function"
    },
    {
      "constant": true,
      "inputs": [
        {
          "name": "",
          "type": "string"
        }
      ],
      "name": "auctionsMapping",
      "outputs": [
        {
          "name": "",
          "type": "address"
        }
      ],
      "payable": false,
      "stateMutability": "view",
      "type": "function"
    },
    {
      "inputs": [
        {
          "name": "_tokenAddress",
          "type": "address"
        }
      ],
      "payable": false,
      "stateMutability": "nonpayable",
      "type": "constructor"
    },
    {
      "payable": true,
      "stateMutability": "payable",
      "type": "fallback"
    },
    {
      "anonymous": false,
      "inputs": [
        {
          "indexed": false,
          "name": "name",
          "type": "string"
        },
        {
          "indexed": false,
          "name": "price",
          "type": "uint256"
        },
        {
          "indexed": false,
          "name": "owner",
          "type": "address"
        },
        {
          "indexed": false,
          "name": "purchased",
          "type": "bool"
        }
      ],
      "name": "ProductCreated",
      "type": "event"
    },
    {
      "anonymous": false,
      "inputs": [
        {
          "indexed": false,
          "name": "name",
          "type": "string"
        },
        {
          "indexed": false,
          "name": "price",
          "type": "uint256"
        },
        {
          "indexed": false,
          "name": "owner",
          "type": "address"
        },
        {
          "indexed": false,
          "name": "purchased",
          "type": "bool"
        }
      ],
      "name": "ProductPurchased",
      "type": "event"
    },
    {
      "anonymous": false,
      "inputs": [
        {
          "indexed": false,
          "name": "name",
          "type": "string"
        },
        {
          "indexed": false,
          "name": "price",
          "type": "uint256"
        },
        {
          "indexed": false,
          "name": "seller",
          "type": "address"
        },
        {
          "indexed": false,
          "name": "buyer",
          "type": "address"
        }
      ],
      "name": "DealCreated",
      "type": "event"
    },
    {
      "constant": true,
      "inputs": [
        {
          "name": "_address",
          "type": "address"
        }
      ],
      "name": "checkBalance",
      "outputs": [
        {
          "name": "_balance",
          "type": "uint256"
        }
      ],
      "payable": false,
      "stateMutability": "view",
      "type": "function"
    },
    {
      "constant": false,
      "inputs": [
        {
          "name": "_name",
          "type": "string"
        },
        {
          "name": "_price",
          "type": "uint256"
        }
      ],
      "name": "sellProduct",
      "outputs": [],
      "payable": false,
      "stateMutability": "nonpayable",
      "type": "function"
    },
    {
      "constant": false,
      "inputs": [
        {
          "name": "_name",
          "type": "string"
        },
        {
          "name": "_price",
          "type": "uint256"
        },
        {
          "name": "_time",
          "type": "uint256"
        }
      ],
      "name": "sellProduct",
      "outputs": [
        {
          "name": "",
          "type": "bool"
        }
      ],
      "payable": false,
      "stateMutability": "nonpayable",
      "type": "function"
    },
    {
      "constant": false,
      "inputs": [
        {
          "name": "_name",
          "type": "string"
        }
      ],
      "name": "purchaseProduct",
      "outputs": [
        {
          "name": "",
          "type": "bool"
        }
      ],
      "payable": true,
      "stateMutability": "payable",
      "type": "function"
    },
    {
      "constant": true,
      "inputs": [],
      "name": "productCount",
      "outputs": [
        {
          "name": "count",
          "type": "uint256"
        }
      ],
      "payable": false,
      "stateMutability": "view",
      "type": "function"
    },
    {
      "constant": true,
      "inputs": [],
      "name": "auctionCount",
      "outputs": [
        {
          "name": "count",
          "type": "uint256"
        }
      ],
      "payable": false,
      "stateMutability": "view",
      "type": "function"
    },
    {
      "constant": false,
      "inputs": [
        {
          "name": "_seller",
          "type": "address"
        }
      ],
      "name": "clearDeal",
      "outputs": [],
      "payable": false,
      "stateMutability": "nonpayable",
      "type": "function"
    }
  ],
  "bytecode": "0x608060405234801561001057600080fd5b506040516020806125418339810180604052602081101561003057600080fd5b5051600280546001600160a01b039283166001600160a01b03199182161791829055600080548216929093169190911790915560018054909116301790556124c48061007d6000396000f3fe608060405260043610620000b65760003560e01c8063322d5a33116200006d578063322d5a3314620004cd578063571a26a014620005735780635f51522614620005bd578063945b269c14620005f4578063e0f6ef8714620006ac578063ff37c76514620006c457620000b6565b80630186a42314620000b8578063172c087f146200021657806319f9292614620002d0578063277f050b146200038e5780632ad7157314620003c55780633227a3d414620003ef575b005b348015620000c557600080fd5b506200017060048036036020811015620000de57600080fd5b810190602081018135600160201b811115620000f957600080fd5b8201836020820111156200010c57600080fd5b803590602001918460018302840111600160201b831117156200012e57600080fd5b91908080601f01602080910402602001604051908101604052809392919081815260200183838082843760009201919091525092955062000781945050505050565b6040518080602001858152602001846001600160a01b03166001600160a01b0316815260200183151515158152602001828103825286818151815260200191508051906020019080838360005b83811015620001d7578181015183820152602001620001bd565b50505050905090810190601f168015620002055780820380516001836020036101000a031916815260200191505b509550505050505060405180910390f35b3480156200022357600080fd5b50620000b6600480360360408110156200023c57600080fd5b810190602081018135600160201b8111156200025757600080fd5b8201836020820111156200026a57600080fd5b803590602001918460018302840111600160201b831117156200028c57600080fd5b91908080601f016020809104026020016040519081016040528093929190818152602001838380828437600092019190915250929550509135925062000853915050565b6200037a60048036036020811015620002e857600080fd5b810190602081018135600160201b8111156200030357600080fd5b8201836020820111156200031657600080fd5b803590602001918460018302840111600160201b831117156200033857600080fd5b91908080601f01602080910402602001604051908101604052809392919081815260200183838082843760009201919091525092955062000b01945050505050565b604080519115158252519081900360200190f35b3480156200039b57600080fd5b50620000b660048036036020811015620003b457600080fd5b50356001600160a01b031662001005565b348015620003d257600080fd5b50620003dd62001059565b60408051918252519081900360200190f35b348015620003fc57600080fd5b5062000426600480360360208110156200041557600080fd5b50356001600160a01b03166200105f565b6040805160208082018790526001600160a01b03808716938301939093529184166060820152821515608082015260a080825287519082015286519091829160c083019189019080838360005b838110156200048d57818101518382015260200162000473565b50505050905090810190601f168015620004bb5780820380516001836020036101000a031916815260200191505b50965050505050505060405180910390f35b348015620004da57600080fd5b50620004fb60048036036020811015620004f357600080fd5b503562001130565b6040805160208082528351818301528351919283929083019185019080838360005b83811015620005375781810151838201526020016200051d565b50505050905090810190601f168015620005655780820380516001836020036101000a031916815260200191505b509250505060405180910390f35b3480156200058057600080fd5b50620005a1600480360360208110156200059957600080fd5b5035620011db565b604080516001600160a01b039092168252519081900360200190f35b348015620005ca57600080fd5b50620003dd60048036036020811015620005e357600080fd5b50356001600160a01b031662001203565b3480156200060157600080fd5b50620005a1600480360360208110156200061a57600080fd5b810190602081018135600160201b8111156200063557600080fd5b8201836020820111156200064857600080fd5b803590602001918460018302840111600160201b831117156200066a57600080fd5b91908080601f01602080910402602001604051908101604052809392919081815260200183838082843760009201919091525092955062001289945050505050565b348015620006b957600080fd5b50620003dd620012af565b348015620006d157600080fd5b506200037a60048036036060811015620006ea57600080fd5b810190602081018135600160201b8111156200070557600080fd5b8201836020820111156200071857600080fd5b803590602001918460018302840111600160201b831117156200073a57600080fd5b91908080601f0160208091040260200160405190810160405280939291908181526020018383808284376000920191909152509295505082359350505060200135620012b5565b805160208183018101805160038252928201938201939093209190925280546040805160026001841615610100026000190190931692909204601f8101859004850283018501909152808252919290918391830182828015620008285780601f10620007fc5761010080835404028352916020019162000828565b820191906000526020600020905b8154815290600101906020018083116200080a57829003601f168201915b5050505060018301546002909301549192916001600160a01b0381169150600160a01b900460ff1684565b60008251116200089f5760408051600160e51b62461bcd02815260206004820152600c6024820152600160a01b6b496e76616c6964206e616d6502604482015290519081900360640190fd5b60008111620008eb5760408051600160e51b62461bcd02815260206004820152600d6024820152600160981b6c496e76616c696420707269636502604482015290519081900360640190fd5b6040518060800160405280838152602001828152602001336001600160a01b03168152602001600015158152506003836040518082805190602001908083835b602083106200094c5780518252601f1990920191602091820191016200092b565b51815160209384036101000a60001901801990921691161790529201948552506040519384900381019093208451805191946200098f945085935001906200153c565b506020828101516001808401919091556040840151600290930180546060909501511515600160a01b02600160a01b60ff02196001600160a01b039095166001600160a01b0319909616959095179390931693909317909155600580549283018082556000919091528451909262000a30927f036b6384b5eca791c62761152d0c79bb0604c104a5fb6f4eb0703f3154bb3db090910191908601906200153c565b50507f8075e725aa7828dccdbc60d5b4692e5ecb19c1ec33df4d79dc1129227cea39a282823360006040518080602001858152602001846001600160a01b03166001600160a01b0316815260200183151515158152602001828103825286818151815260200191508051906020019080838360005b8381101562000abf57818101518382015260200162000aa5565b50505050905090810190601f16801562000aed5780820380516001836020036101000a031916815260200191505b509550505050505060405180910390a15050565b600062000b0d620015c1565b6003836040518082805190602001908083835b6020831062000b415780518252601f19909201916020918201910162000b20565b518151600019602094850361010090810a82019283169219939093169190911790925294909201968752604080519788900382018820805460a0601f6002600184161590990290960190911696909604938401839004909202880185019052608087018281529095508694509285925084018282801562000c065780601f1062000bda5761010080835404028352916020019162000c06565b820191906000526020600020905b81548152906001019060200180831162000be857829003601f168201915b5050509183525050600182015460208201526002909101546001600160a01b03808216604080850191909152600160a01b90920460ff1615156060909301929092528201519192503390821681141562000caa5760408051600160e51b62461bcd02815260206004820152601960248201527f43616e742062757920796f7572206f776e2070726f6475637400000000000000604482015290519081900360640190fd5b600062000cb78262001203565b9050836020015181101562000d165760408051600160e51b62461bcd02815260206004820152601060248201527f4e6f7420656e6f7567682066756e647300000000000000000000000000000000604482015290519081900360640190fd5b7f684f6cb1148636eef80c272a709a0d4153ae81062cf0c3f521bb4d44259c6128846000015185602001518460016040518080602001858152602001846001600160a01b03166001600160a01b0316815260200183151515158152602001828103825286818151815260200191508051906020019080838360005b8381101562000dab57818101518382015260200162000d91565b50505050905090810190601f16801562000dd95780820380516001836020036101000a031916815260200191505b509550505050505060405180910390a16003866040518082805190602001908083835b6020831062000e1d5780518252601f19909201916020918201910162000dfc565b51815160209384036101000a6000190180199092169116179052920194855250604051938490030190922091506000905062000e5a8282620015f4565b50600060018201819055600290910180546001600160a81b03191690556040805160a081018252888152602087810151818301526001600160a01b038781168385018190529087166060840152608083018590528452600481529190922082518051919262000ecf928492909101906200153c565b5060208281015160018301556040808401516002840180546001600160a01b039283166001600160a01b031991821617909155606080870151600390960180546080988901511515600160a01b02600160a01b60ff021998861691909416179690961691909117909455888301518251808501829052898316938101939093529087169382019390935283815289519381019390935288517fbc1cb29dd68a6a2662f0789b9bf49259f0f3112fd8a4bc6334d606db3c29494b938a93928892889291829160a083019188019080838360005b8381101562000fbb57818101518382015260200162000fa1565b50505050905090810190601f16801562000fe95780820380516001836020036101000a031916815260200191505b509550505050505060405180910390a150600195945050505050565b6001600160a01b0381166000908152600460205260408120906200102a8282620015f4565b50600060018201556002810180546001600160a01b031916905560030180546001600160a81b03191690555b50565b60065490565b60046020908152600091825260409182902080548351601f60026000196101006001861615020190931692909204918201849004840281018401909452808452909291839190830182828015620010fa5780601f10620010ce57610100808354040283529160200191620010fa565b820191906000526020600020905b815481529060010190602001808311620010dc57829003601f168201915b5050505060018301546002840154600390940154929390926001600160a01b03918216925090811690600160a01b900460ff1685565b600581815481106200113e57fe5b600091825260209182902001805460408051601f6002600019610100600187161502019094169390930492830185900485028101850190915281815293509091830182828015620011d35780601f10620011a757610100808354040283529160200191620011d3565b820191906000526020600020905b815481529060010190602001808311620011b557829003601f168201915b505050505081565b60068181548110620011e957fe5b6000918252602090912001546001600160a01b0316905081565b6000805460408051600160e01b6370a082310281526001600160a01b038581166004830152915191909216916370a08231916024808301926020929190829003018186803b1580156200125557600080fd5b505afa1580156200126a573d6000803e3d6000fd5b505050506040513d60208110156200128157600080fd5b505192915050565b80516020818301810180516007825292820191909301209152546001600160a01b031681565b60055490565b600080845111620013025760408051600160e51b62461bcd02815260206004820152600c6024820152600160a01b6b496e76616c6964206e616d6502604482015290519081900360640190fd5b600083116200134e5760408051600160e51b62461bcd02815260206004820152600d6024820152600160981b6c496e76616c696420707269636502604482015290519081900360640190fd5b6001546002544391603c850291600e918287048501916200138691869184918c918c9133916001600160a01b03918216911662001391565b505050509392505050565b600087878787878787604051620013a8906200163c565b8781526020808201889052606082018690526001600160a01b03808616608084015284811660a0840152831660c083015260e060408301818152885191840191909152875190916101008401919089019080838360005b8381101562001419578181015183820152602001620013ff565b50505050905090810190601f168015620014475780820380516001836020036101000a031916815260200191505b5098505050505050505050604051809103906000f0801580156200146f573d6000803e3d6000fd5b509050806007876040518082805190602001908083835b60208310620014a75780518252601f19909201916020918201910162001486565b51815160209384036101000a6000190180199092169116179052920194855250604051938490030190922080546001600160a01b03199081166001600160a01b0395861617909155600680546001810182556000919091527ff652222313e28459528d920b65115c16c04f3efc82aaedc97be59f3f377c0d3f0180549091169490931693909317909155505050505050505050565b828054600181600116156101000203166002900490600052602060002090601f016020900481019282601f106200157f57805160ff1916838001178555620015af565b82800160010185558215620015af579182015b82811115620015af57825182559160200191906001019062001592565b50620015bd9291506200164a565b5090565b6040518060800160405280606081526020016000815260200160006001600160a01b031681526020016000151581525090565b50805460018160011615610100020316600290046000825580601f106200161c575062001056565b601f0160209004906000526020600020908101906200105691906200164a565b610e2e806200166b83390190565b6200166791905b80821115620015bd576000815560010162001651565b9056fe608060405234801561001057600080fd5b5060405162000e2e38038062000e2e833981018060405260e081101561003557600080fd5b815160208301516040840180519294919382019264010000000081111561005b57600080fd5b8201602081018481111561006e57600080fd5b815164010000000081118282018710171561008857600080fd5b5050602082015160408301516060840151608090940151929550909350919085871015610101576040517f08c379a000000000000000000000000000000000000000000000000000000000815260040180806020018281038252602b81526020018062000e03602b913960400191505060405180910390fd5b4387111561017057604080517f08c379a000000000000000000000000000000000000000000000000000000000815260206004820152601460248201527f496e636f72726563742073746172742074696d65000000000000000000000000604482015290519081900360640190fd5b6001600160a01b0382166101e557604080517f08c379a000000000000000000000000000000000000000000000000000000000815260206004820152601360248201527f4f776e6572206e6f742073706563696669656400000000000000000000000000604482015290519081900360640190fd5b60018054306001600160a01b031991821617909155600080549091166001600160a01b03831617905560028790556003869055845161022b906004906020880190610268565b5050600592909255600980546001600160a01b039283166001600160a01b0319918216179091556008805492909316911617905550610303915050565b828054600181600116156101000203166002900490600052602060002090601f016020900481019282601f106102a957805160ff19168380011785556102d6565b828001600101855582156102d6579182015b828111156102d65782518255916020019190600101906102bb565b506102e29291506102e6565b5090565b61030091905b808211156102e257600081556001016102ec565b90565b610af080620003136000396000f3fe608060405234801561001057600080fd5b506004361061007d5760003560e01c806391f901571161005b57806391f90157146100ae5780639979ef45146100d25780639af6549a146100ef578063d57bde79146100f75761007d565b8063083c63231461008257806348c54b9d1461009c57806348cd4cb1146100a6575b600080fd5b61008a6100ff565b60408051918252519081900360200190f35b6100a4610105565b005b61008a61033e565b6100b6610344565b604080516001600160a01b039092168252519081900360200190f35b6100a4600480360360208110156100e857600080fd5b5035610353565b6100a46105e0565b61008a61090e565b60035481565b600354431161015e5760408051600160e51b62461bcd02815260206004820152601460248201527f41756374696f6e206973206e6f7420656e646564000000000000000000000000604482015290519081900360640190fd5b6006546001600160a01b03163314156101c15760408051600160e51b62461bcd02815260206004820152600e60248201527f43616e2774207769746864726177000000000000000000000000000000000000604482015290519081900360640190fd5b336000908152600b6020526040902054806102265760408051600160e51b62461bcd02815260206004820152601360248201527f4e6f7468696e6720746f207472616e7366657200000000000000000000000000604482015290519081900360640190fd5b6000805460408051600160e01b63095ea7b30281523360048201526024810185905290516001600160a01b039092169263095ea7b3926044808401936020939083900390910190829087803b15801561027e57600080fd5b505af1158015610292573d6000803e3d6000fd5b505050506040513d60208110156102a857600080fd5b50506000805460015460408051600160e01b6323b872dd0281526001600160a01b03928316600482015233602482015260448101869052905191909216926323b872dd92606480820193602093909283900390910190829087803b15801561030f57600080fd5b505af1158015610323573d6000803e3d6000fd5b505050506040513d602081101561033957600080fd5b505050565b60025481565b6006546001600160a01b031681565b60035443106103ac5760408051600160e51b62461bcd02815260206004820152601160248201527f41756374696f6e2068617320656e646564000000000000000000000000000000604482015290519081900360640190fd5b60055460005460408051600160e01b6370a0823102815233600482015290516001600160a01b03909216916370a0823191602480820192602092909190829003018186803b1580156103fd57600080fd5b505afa158015610411573d6000803e3d6000fd5b505050506040513d602081101561042757600080fd5b5051101561047f5760408051600160e51b62461bcd02815260206004820152601060248201527f4e6f7420656e6f7567682066756e647300000000000000000000000000000000604482015290519081900360640190fd5b60075481116104d85760408051600160e51b62461bcd02815260206004820152601c60248201527f426964206973206c657373207468656e20686967686573742062696400000000604482015290519081900360640190fd5b6000805460015460408051600160e01b63a9059cbb0281526001600160a01b039283166004820152602481018690529051919092169263a9059cbb92604480820193602093909283900390910190829087803b15801561053757600080fd5b505af115801561054b573d6000803e3d6000fd5b505050506040513d602081101561056157600080fd5b50506007819055600680546001600160a01b031916339081179091556000908152600b6020526040902054156105ca57336000908152600b6020526040812054906105b2828463ffffffff61091416565b336000908152600b6020526040902055506105dd9050565b336000908152600b602052604090208190555b50565b60035443116106395760408051600160e51b62461bcd02815260206004820152601460248201527f41756374696f6e206973206e6f7420656e646564000000000000000000000000604482015290519081900360640190fd5b6009546001600160a01b0316331461069b5760408051600160e51b62461bcd02815260206004820152601c60248201527f4f6e6c792073656c6c65722063616e20636c61696d20746f6b656e7300000000604482015290519081900360640190fd5b6000805460095460075460408051600160e01b63095ea7b30281526001600160a01b039384166004820152602481019290925251919092169263095ea7b392604480820193602093909283900390910190829087803b1580156106fd57600080fd5b505af1158015610711573d6000803e3d6000fd5b505050506040513d602081101561072757600080fd5b505060075460009061074090606963ffffffff61097a16565b905061075381606463ffffffff6109d616565b905061076a60075482610a4390919063ffffffff16565b6000546001546009546007549394506001600160a01b03928316936323b872dd93928316929091169061079d9086610a43565b6040805163ffffffff861660e01b81526001600160a01b0394851660048201529290931660248301526044820152905160648083019260209291908290030181600087803b1580156107ee57600080fd5b505af1158015610802573d6000803e3d6000fd5b505050506040513d602081101561081857600080fd5b50506000805460085460408051600160e01b63095ea7b30281526001600160a01b039283166004820152602481018690529051919092169263095ea7b392604480820193602093909283900390910190829087803b15801561087957600080fd5b505af115801561088d573d6000803e3d6000fd5b505050506040513d60208110156108a357600080fd5b50506000805460015460085460408051600160e01b6323b872dd0281526001600160a01b0393841660048201529183166024830152604482018690525191909216926323b872dd92606480820193602093909283900390910190829087803b15801561030f57600080fd5b60075481565b6000828201838110156109715760408051600160e51b62461bcd02815260206004820152601b60248201527f536166654d6174683a206164646974696f6e206f766572666c6f770000000000604482015290519081900360640190fd5b90505b92915050565b60008261098957506000610974565b8282028284828161099657fe5b041461097157604051600160e51b62461bcd028152600401808060200182810382526021815260200180610aa46021913960400191505060405180910390fd5b6000808211610a2f5760408051600160e51b62461bcd02815260206004820152601a60248201527f536166654d6174683a206469766973696f6e206279207a65726f000000000000604482015290519081900360640190fd5b6000828481610a3a57fe5b04949350505050565b600082821115610a9d5760408051600160e51b62461bcd02815260206004820152601e60248201527f536166654d6174683a207375627472616374696f6e206f766572666c6f770000604482015290519081900360640190fd5b5090039056fe536166654d6174683a206d756c7469706c69636174696f6e206f766572666c6f77a165627a7a72305820927e069e765cecfcbcda999ca4b594adc84998306508a514d93014aa3a2d738e002941756374696f6e2073746172742074696d652069732067726561746572207468616e20656e642074696d65a165627a7a7230582026918c51739998d75e86d2ce6878b371e7a90a62ec1c89ac9914553e9b5ebf970029",
  "source": "pragma solidity ^0.5.0;\n\nimport './VSTToken.sol';\nimport '@openzeppelin/contracts/math/SafeMath.sol';\n\ncontract Store {\n    VSTToken Token;\n    constructor(address _tokenAddress) public {\n        tokenAddress = _tokenAddress;\n        Token = VSTToken(tokenAddress);\n        contractAddress = address(this);\n    }\n    address payable contractAddress;\n    address tokenAddress;\n    mapping(string => Product) public products;\n    mapping(address => Deal ) public deals;\n    string[] public productIndex;\n\n    // related with auction\n    address[] public auctions;\n    mapping(string => address) public auctionsMapping;\n\n    struct Product {\n        string name;\n        uint price;\n        address payable owner;\n        bool purchased;\n    }\n\n    struct Deal {\n        string name;\n        uint price;\n        address payable seller;\n        address payable buyer;\n        bool isDone;\n    }\n\n    event ProductCreated(\n        string name,\n        uint price,\n        address payable owner,\n        bool purchased\n    );\n\n    event ProductPurchased(\n        string name,\n        uint price,\n        address payable owner,\n        bool purchased\n    );\n\n    event DealCreated(\n        string name,\n        uint price,\n        address seller,\n        address buyer\n    );\n\n    // fallback function\n    function () external payable {\n    }\n\n    function checkBalance(address _address) public view returns (uint _balance) {\n        return Token.balanceOf(_address);\n    }\n// regular sale for pt1 and pt2\n    function sellProduct(string memory _name, uint _price) public {\n        // Require a valid name\n        require(bytes(_name).length > 0, \"Invalid name\");\n        // Require a valid price\n        require(_price > 0, \"Invalid price\");\n        // Increment product count\n        // Create the product\n        products[_name] = Product(_name, _price, msg.sender, false);\n        // add index to an array\n        productIndex.push(_name);\n        // Trigger an event\n        emit ProductCreated(_name, _price, msg.sender, false);\n    }\n\n// overloaded sale method for auction feature\n    function sellProduct (\n        string memory _name,\n        uint _price,\n        uint _time\n    )\n        public\n        returns (bool)\n    {\n        require(bytes(_name).length > 0, \"Invalid name\");\n        require(_price > 0, \"Invalid price\");\n\n        // convert time to seconds\n        //_time should be in minutes => block time in eth network avg 14 sec according to etherscan stats\n        // end block time = block.now + ( minutes / 14 sec )\n        uint startBlock = block.number;\n        uint auctionDuration = _time;\n        auctionDuration = auctionDuration * 60 seconds;\n        uint blockCreationTime = 14 seconds;\n        uint endBlock = startBlock + (_time / blockCreationTime);\n\n        // factory function that creates auction for the product\n        // define _benef and _owner\n        // @TODO\n        auctionFactory(startBlock, endBlock, _name, _price, msg.sender, contractAddress, tokenAddress);\n    }\n    function purchaseProduct(string memory _name) public payable returns (bool) {\n        // Fetch the product\n        Product memory _product = products[_name];\n        // Fetch the owner\n        address payable _seller = _product.owner;\n        address payable _buyer = msg.sender;\n        // Require that the buyer is not the seller\n        require(_seller != _buyer, \"Cant buy your own product\");\n        // Check buyer token balance\n        uint buyerBalance = checkBalance(_buyer);\n        require(buyerBalance >= _product.price, \"Not enough funds\");\n        // Trigger an event\n        emit ProductPurchased(_product.name, _product.price, _buyer, true);\n        // Delete the product => set its values to 0\n        delete products[_name];\n        // remove _name from an array\n        // @dev delete productIndex[uint key]\n        // add product to deals mapping\n        deals[_seller] = Deal(_name, _product.price, _seller, _buyer, false);\n        emit DealCreated(_name, _product.price, _seller, _buyer);\n        return true;\n    }\n\n    function productCount() public view returns (uint count) {\n        count = productIndex.length;\n    }\n    function auctionCount() public view returns (uint count) {\n        count = auctions.length;\n    }\n\n    function clearDeal(address _seller) public {\n        return delete deals[_seller];\n    }\n\n    function auctionFactory(\n        uint _startBlock,\n        uint _endBlock,\n        string memory _name,\n        uint _price,\n        address payable _beneficiary,\n        address _owner,\n        address _token\n    )\n        internal\n    {\n        // need to create contract with these parameters\n        address NewAuction = address(new ProductAutcion(_startBlock, _endBlock, _name, _price, _beneficiary, _owner, _token));\n        auctionsMapping[_name] = NewAuction;\n        auctions.push(NewAuction);\n    }\n}\n\ncontract ProductAutcion {\n    using SafeMath for uint;\n\n    VSTToken Token;\n    address productAuction;\n    // Auction state\n    uint public startBlock;\n    uint public endBlock;\n    string name;\n    uint price;\n    address public highestBidder;\n    uint public highestBid;\n    address owner;\n    address payable beneficiary;\n    address store;\n    // bidders funds\n    mapping(address => uint) pendingReturns;\n\n    constructor(\n        uint _startBlock,\n        uint _endBlock,\n        string memory _name,\n        uint _price,\n        address payable _beneficiary,\n        address _owner,\n        address _token\n    )\n        public\n    {\n        require(_startBlock >= _endBlock, \"Auction start time is greater than end time\");\n        require(_startBlock <= block.number, \"Incorrect start time\");\n        require(_owner != address(0), \"Owner not specified\");\n\n        productAuction = address(this);\n        Token = VSTToken(_token);\n        startBlock = _startBlock;\n        endBlock = _endBlock;\n        name = _name;\n        price = _price;\n        beneficiary = _beneficiary;\n        owner = _owner;\n    }\n        // store users bids\n    function placeBid(uint tokenAmmount) public onlyBeforeEnd {\n        // check balance\n        require(Token.balanceOf(msg.sender) >= price, 'Not enough funds');\n        // check highest bid, if less => revert\n        require(tokenAmmount > highestBid, 'Bid is less then highest bid');\n        Token.transfer(productAuction, tokenAmmount);\n        highestBid = tokenAmmount;\n        highestBidder = msg.sender;\n        // add to bidders pool\n        if (pendingReturns[msg.sender] > 0) {\n            uint pastBid = pendingReturns[msg.sender];\n            uint newBid = pastBid.add(tokenAmmount);\n            pendingReturns[msg.sender] = newBid;\n        }\n        else {\n            pendingReturns[msg.sender] = tokenAmmount;\n        }\n    }\n\n        // withdraw funds if not the winner\n        function claimTokens() public onlyAfterAuction {\n            require(msg.sender != highestBidder, \"Can't withdraw\");\n            uint balance = pendingReturns[msg.sender];\n            require(balance > 0, \"Nothing to transfer\");\n            Token.approve(msg.sender, balance);\n            Token.transferFrom(productAuction, msg.sender, balance);\n        }\n\n        function beneficiaryWithdraw() public onlyAfterAuction {\n            require(msg.sender == beneficiary, \"Only seller can claim tokens\");\n            Token.approve(beneficiary, highestBid);\n            // calc 5% commission\n            uint commission = highestBid.mul(105);\n            commission = commission.div(100);\n            commission = commission.sub(highestBid);\n            // send to seller\n            Token.transferFrom(productAuction, beneficiary, highestBid.sub(commission));\n            // send 5% to store\n            Token.approve(owner, commission);\n            Token.transferFrom(productAuction, owner, commission);\n        }\n\n        modifier onlyBeforeEnd {\n            require(block.number < endBlock, \"Auction has ended\");\n            _;\n        }\n\n        modifier onlyAfterAuction {\n            require(block.number > endBlock, \"Auction is not ended\");\n            _;\n        }\n\n\n\n}",
  "sourcePath": "/Users/roman/Documents/Projects/VST/contracts/Store.sol",
  "compiler": {
    "name": "solc",
    "version": "0.5.8+commit.23d335f2.Emscripten.clang"
  },
  "schemaVersion": "3.0.16",
  "updatedAt": "2019-10-22T09:54:52.174Z",
  "devdoc": {
    "methods": {}
  },
  "userdoc": {
    "methods": {}
  }
}