{
  "contractName": "Store",
  "abi": [
    {
      "constant": true,
      "inputs": [
        {
          "name": "",
          "type": "string"
        }
      ],
      "name": "products",
      "outputs": [
        {
          "name": "name",
          "type": "string"
        },
        {
          "name": "price",
          "type": "uint256"
        },
        {
          "name": "owner",
          "type": "address"
        },
        {
          "name": "purchased",
          "type": "bool"
        }
      ],
      "payable": false,
      "stateMutability": "view",
      "type": "function"
    },
    {
      "constant": true,
      "inputs": [
        {
          "name": "",
          "type": "address"
        }
      ],
      "name": "deals",
      "outputs": [
        {
          "name": "name",
          "type": "string"
        },
        {
          "name": "price",
          "type": "uint256"
        },
        {
          "name": "seller",
          "type": "address"
        },
        {
          "name": "buyer",
          "type": "address"
        },
        {
          "name": "isDone",
          "type": "bool"
        }
      ],
      "payable": false,
      "stateMutability": "view",
      "type": "function"
    },
    {
      "constant": true,
      "inputs": [
        {
          "name": "",
          "type": "uint256"
        }
      ],
      "name": "productIndex",
      "outputs": [
        {
          "name": "",
          "type": "string"
        }
      ],
      "payable": false,
      "stateMutability": "view",
      "type": "function"
    },
    {
      "constant": true,
      "inputs": [
        {
          "name": "",
          "type": "uint256"
        }
      ],
      "name": "auctions",
      "outputs": [
        {
          "name": "",
          "type": "address"
        }
      ],
      "payable": false,
      "stateMutability": "view",
      "type": "function"
    },
    {
      "inputs": [
        {
          "name": "_tokenAddress",
          "type": "address"
        }
      ],
      "payable": false,
      "stateMutability": "nonpayable",
      "type": "constructor"
    },
    {
      "anonymous": false,
      "inputs": [
        {
          "indexed": false,
          "name": "name",
          "type": "string"
        },
        {
          "indexed": false,
          "name": "price",
          "type": "uint256"
        },
        {
          "indexed": false,
          "name": "owner",
          "type": "address"
        },
        {
          "indexed": false,
          "name": "purchased",
          "type": "bool"
        }
      ],
      "name": "ProductCreated",
      "type": "event"
    },
    {
      "anonymous": false,
      "inputs": [
        {
          "indexed": false,
          "name": "name",
          "type": "string"
        },
        {
          "indexed": false,
          "name": "price",
          "type": "uint256"
        },
        {
          "indexed": false,
          "name": "owner",
          "type": "address"
        },
        {
          "indexed": false,
          "name": "purchased",
          "type": "bool"
        }
      ],
      "name": "ProductPurchased",
      "type": "event"
    },
    {
      "anonymous": false,
      "inputs": [
        {
          "indexed": false,
          "name": "name",
          "type": "string"
        },
        {
          "indexed": false,
          "name": "price",
          "type": "uint256"
        },
        {
          "indexed": false,
          "name": "seller",
          "type": "address"
        },
        {
          "indexed": false,
          "name": "buyer",
          "type": "address"
        }
      ],
      "name": "DealCreated",
      "type": "event"
    },
    {
      "constant": true,
      "inputs": [
        {
          "name": "_address",
          "type": "address"
        }
      ],
      "name": "checkBalance",
      "outputs": [
        {
          "name": "_balance",
          "type": "uint256"
        }
      ],
      "payable": false,
      "stateMutability": "view",
      "type": "function"
    },
    {
      "constant": false,
      "inputs": [
        {
          "name": "_name",
          "type": "string"
        },
        {
          "name": "_price",
          "type": "uint256"
        }
      ],
      "name": "sellProduct",
      "outputs": [],
      "payable": false,
      "stateMutability": "nonpayable",
      "type": "function"
    },
    {
      "constant": false,
      "inputs": [
        {
          "name": "_name",
          "type": "string"
        },
        {
          "name": "_price",
          "type": "uint256"
        },
        {
          "name": "_time",
          "type": "uint256"
        }
      ],
      "name": "sellProduct",
      "outputs": [
        {
          "name": "",
          "type": "bool"
        }
      ],
      "payable": false,
      "stateMutability": "nonpayable",
      "type": "function"
    },
    {
      "constant": false,
      "inputs": [
        {
          "name": "_name",
          "type": "string"
        }
      ],
      "name": "purchaseProduct",
      "outputs": [
        {
          "name": "",
          "type": "bool"
        }
      ],
      "payable": true,
      "stateMutability": "payable",
      "type": "function"
    },
    {
      "constant": true,
      "inputs": [],
      "name": "productCount",
      "outputs": [
        {
          "name": "count",
          "type": "uint256"
        }
      ],
      "payable": false,
      "stateMutability": "view",
      "type": "function"
    },
    {
      "constant": true,
      "inputs": [],
      "name": "auctionCount",
      "outputs": [
        {
          "name": "count",
          "type": "uint256"
        }
      ],
      "payable": false,
      "stateMutability": "view",
      "type": "function"
    },
    {
      "constant": false,
      "inputs": [
        {
          "name": "_seller",
          "type": "address"
        }
      ],
      "name": "clearDeal",
      "outputs": [],
      "payable": false,
      "stateMutability": "nonpayable",
      "type": "function"
    }
  ],
  "bytecode": "0x608060405234801561001057600080fd5b506040516020806124608339810180604052602081101561003057600080fd5b5051600280546001600160a01b039283166001600160a01b03199182161791829055600080548216929093169190911790915560018054909116301790556123e38061007d6000396000f3fe608060405260043610620000aa5760003560e01c80633227a3d4116200006d5780633227a3d414620003e8578063322d5a3314620004c6578063571a26a0146200056c5780635f51522614620005b6578063e0f6ef8714620005ed578063ff37c765146200060557620000aa565b80630186a42314620000af578063172c087f146200020d57806319f9292614620002c9578063277f050b14620003875780632ad7157314620003be575b600080fd5b348015620000bc57600080fd5b506200016760048036036020811015620000d557600080fd5b810190602081018135600160201b811115620000f057600080fd5b8201836020820111156200010357600080fd5b803590602001918460018302840111600160201b831117156200012557600080fd5b91908080601f016020809104026020016040519081016040528093929190818152602001838380828437600092019190915250929550620006c2945050505050565b6040518080602001858152602001846001600160a01b03166001600160a01b0316815260200183151515158152602001828103825286818151815260200191508051906020019080838360005b83811015620001ce578181015183820152602001620001b4565b50505050905090810190601f168015620001fc5780820380516001836020036101000a031916815260200191505b509550505050505060405180910390f35b3480156200021a57600080fd5b50620002c7600480360360408110156200023357600080fd5b810190602081018135600160201b8111156200024e57600080fd5b8201836020820111156200026157600080fd5b803590602001918460018302840111600160201b831117156200028357600080fd5b91908080601f016020809104026020016040519081016040528093929190818152602001838380828437600092019190915250929550509135925062000794915050565b005b6200037360048036036020811015620002e157600080fd5b810190602081018135600160201b811115620002fc57600080fd5b8201836020820111156200030f57600080fd5b803590602001918460018302840111600160201b831117156200033157600080fd5b91908080601f01602080910402602001604051908101604052809392919081815260200183838082843760009201919091525092955062000a42945050505050565b604080519115158252519081900360200190f35b3480156200039457600080fd5b50620002c760048036036020811015620003ad57600080fd5b50356001600160a01b031662000f46565b348015620003cb57600080fd5b50620003d662000f9a565b60408051918252519081900360200190f35b348015620003f557600080fd5b506200041f600480360360208110156200040e57600080fd5b50356001600160a01b031662000fa0565b6040805160208082018790526001600160a01b03808716938301939093529184166060820152821515608082015260a080825287519082015286519091829160c083019189019080838360005b83811015620004865781810151838201526020016200046c565b50505050905090810190601f168015620004b45780820380516001836020036101000a031916815260200191505b50965050505050505060405180910390f35b348015620004d357600080fd5b50620004f460048036036020811015620004ec57600080fd5b503562001071565b6040805160208082528351818301528351919283929083019185019080838360005b838110156200053057818101518382015260200162000516565b50505050905090810190601f1680156200055e5780820380516001836020036101000a031916815260200191505b509250505060405180910390f35b3480156200057957600080fd5b506200059a600480360360208110156200059257600080fd5b50356200111c565b604080516001600160a01b039092168252519081900360200190f35b348015620005c357600080fd5b50620003d660048036036020811015620005dc57600080fd5b50356001600160a01b031662001144565b348015620005fa57600080fd5b50620003d6620011ca565b3480156200061257600080fd5b5062000373600480360360608110156200062b57600080fd5b810190602081018135600160201b8111156200064657600080fd5b8201836020820111156200065957600080fd5b803590602001918460018302840111600160201b831117156200067b57600080fd5b91908080601f0160208091040260200160405190810160405280939291908181526020018383808284376000920191909152509295505082359350505060200135620011d0565b805160208183018101805160038252928201938201939093209190925280546040805160026001841615610100026000190190931692909204601f8101859004850283018501909152808252919290918391830182828015620007695780601f106200073d5761010080835404028352916020019162000769565b820191906000526020600020905b8154815290600101906020018083116200074b57829003601f168201915b5050505060018301546002909301549192916001600160a01b0381169150600160a01b900460ff1684565b6000825111620007e05760408051600160e51b62461bcd02815260206004820152600c6024820152600160a01b6b496e76616c6964206e616d6502604482015290519081900360640190fd5b600081116200082c5760408051600160e51b62461bcd02815260206004820152600d6024820152600160981b6c496e76616c696420707269636502604482015290519081900360640190fd5b6040518060800160405280838152602001828152602001336001600160a01b03168152602001600015158152506003836040518082805190602001908083835b602083106200088d5780518252601f1990920191602091820191016200086c565b51815160209384036101000a6000190180199092169116179052920194855250604051938490038101909320845180519194620008d09450859350019062001465565b506020828101516001808401919091556040840151600290930180546060909501511515600160a01b02600160a01b60ff02196001600160a01b039095166001600160a01b0319909616959095179390931693909317909155600580549283018082556000919091528451909262000971927f036b6384b5eca791c62761152d0c79bb0604c104a5fb6f4eb0703f3154bb3db0909101919086019062001465565b50507f8075e725aa7828dccdbc60d5b4692e5ecb19c1ec33df4d79dc1129227cea39a282823360006040518080602001858152602001846001600160a01b03166001600160a01b0316815260200183151515158152602001828103825286818151815260200191508051906020019080838360005b8381101562000a00578181015183820152602001620009e6565b50505050905090810190601f16801562000a2e5780820380516001836020036101000a031916815260200191505b509550505050505060405180910390a15050565b600062000a4e620014ea565b6003836040518082805190602001908083835b6020831062000a825780518252601f19909201916020918201910162000a61565b518151600019602094850361010090810a82019283169219939093169190911790925294909201968752604080519788900382018820805460a0601f6002600184161590990290960190911696909604938401839004909202880185019052608087018281529095508694509285925084018282801562000b475780601f1062000b1b5761010080835404028352916020019162000b47565b820191906000526020600020905b81548152906001019060200180831162000b2957829003601f168201915b5050509183525050600182015460208201526002909101546001600160a01b03808216604080850191909152600160a01b90920460ff1615156060909301929092528201519192503390821681141562000beb5760408051600160e51b62461bcd02815260206004820152601960248201527f43616e742062757920796f7572206f776e2070726f6475637400000000000000604482015290519081900360640190fd5b600062000bf88262001144565b9050836020015181101562000c575760408051600160e51b62461bcd02815260206004820152601060248201527f4e6f7420656e6f7567682066756e647300000000000000000000000000000000604482015290519081900360640190fd5b7f684f6cb1148636eef80c272a709a0d4153ae81062cf0c3f521bb4d44259c6128846000015185602001518460016040518080602001858152602001846001600160a01b03166001600160a01b0316815260200183151515158152602001828103825286818151815260200191508051906020019080838360005b8381101562000cec57818101518382015260200162000cd2565b50505050905090810190601f16801562000d1a5780820380516001836020036101000a031916815260200191505b509550505050505060405180910390a16003866040518082805190602001908083835b6020831062000d5e5780518252601f19909201916020918201910162000d3d565b51815160209384036101000a6000190180199092169116179052920194855250604051938490030190922091506000905062000d9b82826200151d565b50600060018201819055600290910180546001600160a81b03191690556040805160a081018252888152602087810151818301526001600160a01b038781168385018190529087166060840152608083018590528452600481529190922082518051919262000e109284929091019062001465565b5060208281015160018301556040808401516002840180546001600160a01b039283166001600160a01b031991821617909155606080870151600390960180546080988901511515600160a01b02600160a01b60ff021998861691909416179690961691909117909455888301518251808501829052898316938101939093529087169382019390935283815289519381019390935288517fbc1cb29dd68a6a2662f0789b9bf49259f0f3112fd8a4bc6334d606db3c29494b938a93928892889291829160a083019188019080838360005b8381101562000efc57818101518382015260200162000ee2565b50505050905090810190601f16801562000f2a5780820380516001836020036101000a031916815260200191505b509550505050505060405180910390a150600195945050505050565b6001600160a01b03811660009081526004602052604081209062000f6b82826200151d565b50600060018201556002810180546001600160a01b031916905560030180546001600160a81b03191690555b50565b60065490565b60046020908152600091825260409182902080548351601f600260001961010060018616150201909316929092049182018490048402810184019094528084529092918391908301828280156200103b5780601f106200100f576101008083540402835291602001916200103b565b820191906000526020600020905b8154815290600101906020018083116200101d57829003601f168201915b5050505060018301546002840154600390940154929390926001600160a01b03918216925090811690600160a01b900460ff1685565b600581815481106200107f57fe5b600091825260209182902001805460408051601f6002600019610100600187161502019094169390930492830185900485028101850190915281815293509091830182828015620011145780601f10620010e85761010080835404028352916020019162001114565b820191906000526020600020905b815481529060010190602001808311620010f657829003601f168201915b505050505081565b600681815481106200112a57fe5b6000918252602090912001546001600160a01b0316905081565b6000805460408051600160e01b6370a082310281526001600160a01b038581166004830152915191909216916370a08231916024808301926020929190829003018186803b1580156200119657600080fd5b505afa158015620011ab573d6000803e3d6000fd5b505050506040513d6020811015620011c257600080fd5b505192915050565b60055490565b6000808451116200121d5760408051600160e51b62461bcd02815260206004820152600c6024820152600160a01b6b496e76616c6964206e616d6502604482015290519081900360640190fd5b60008311620012695760408051600160e51b62461bcd02815260206004820152600d6024820152600160981b6c496e76616c696420707269636502604482015290519081900360640190fd5b6001546002544391603c850291600e91828704850191620012a191869184918c918c9133916001600160a01b039182169116620012ac565b505050509392505050565b600087878787878787604051620012c39062001565565b8781526020808201889052606082018690526001600160a01b03808616608084015284811660a0840152831660c083015260e060408301818152885191840191909152875190916101008401919089019080838360005b83811015620013345781810151838201526020016200131a565b50505050905090810190601f168015620013625780820380516001836020036101000a031916815260200191505b5098505050505050505050604051809103906000f0801580156200138a573d6000803e3d6000fd5b5090506007866040518082805190602001908083835b60208310620013c15780518252601f199092019160209182019101620013a0565b51815160001960209485036101000a0190811690199190911617905292019485525060405193849003810190932080546001818101835560009283529482200180546001600160a01b039096166001600160a01b031996871681179091556006805495860181559091527ff652222313e28459528d920b65115c16c04f3efc82aaedc97be59f3f377c0d3f9093018054909416909217909255505050505050505050565b828054600181600116156101000203166002900490600052602060002090601f016020900481019282601f10620014a857805160ff1916838001178555620014d8565b82800160010185558215620014d8579182015b82811115620014d8578251825591602001919060010190620014bb565b50620014e692915062001573565b5090565b6040518060800160405280606081526020016000815260200160006001600160a01b031681526020016000151581525090565b50805460018160011615610100020316600290046000825580601f1062001545575062000f97565b601f01602090049060005260206000209081019062000f97919062001573565b610e24806200159483390190565b6200159091905b80821115620014e657600081556001016200157a565b9056fe608060405234801561001057600080fd5b50604051610e24380380610e24833981018060405260e081101561003357600080fd5b815160208301516040840180519294919382019264010000000081111561005957600080fd5b8201602081018481111561006c57600080fd5b815164010000000081118282018710171561008657600080fd5b50506020820151604083015160608401516080909401519295509093509190858710156100fe576040517f08c379a000000000000000000000000000000000000000000000000000000000815260040180806020018281038252602b815260200180610df9602b913960400191505060405180910390fd5b43871061016c57604080517f08c379a000000000000000000000000000000000000000000000000000000000815260206004820152601460248201527f496e636f72726563742073746172742074696d65000000000000000000000000604482015290519081900360640190fd5b6001600160a01b0382166101e157604080517f08c379a000000000000000000000000000000000000000000000000000000000815260206004820152601360248201527f4f776e6572206e6f742073706563696669656400000000000000000000000000604482015290519081900360640190fd5b60018054306001600160a01b031991821617909155600080549091166001600160a01b038316179055600287905560038690558451610227906004906020880190610264565b5050600592909255600980546001600160a01b039283166001600160a01b03199182161790915560088054929093169116179055506102ff915050565b828054600181600116156101000203166002900490600052602060002090601f016020900481019282601f106102a557805160ff19168380011785556102d2565b828001600101855582156102d2579182015b828111156102d25782518255916020019190600101906102b7565b506102de9291506102e2565b5090565b6102fc91905b808211156102de57600081556001016102e8565b90565b610aeb8061030e6000396000f3fe608060405234801561001057600080fd5b506004361061007d5760003560e01c806348cd4cb11161005b57806348cd4cb1146100ae57806391f90157146100b65780639979ef45146100da578063d57bde79146100f75761007d565b8063083c6323146100825780633ccfd60b1461009c57806348c54b9d146100a6575b600080fd5b61008a6100ff565b60408051918252519081900360200190f35b6100a4610105565b005b6100a461033e565b61008a610667565b6100be61066d565b604080516001600160a01b039092168252519081900360200190f35b6100a4600480360360208110156100f057600080fd5b503561067c565b61008a610909565b60035481565b600354431161015e5760408051600160e51b62461bcd02815260206004820152601460248201527f41756374696f6e206973206e6f7420656e646564000000000000000000000000604482015290519081900360640190fd5b6006546001600160a01b03163314156101c15760408051600160e51b62461bcd02815260206004820152600e60248201527f43616e2774207769746864726177000000000000000000000000000000000000604482015290519081900360640190fd5b336000908152600b6020526040902054806102265760408051600160e51b62461bcd02815260206004820152601360248201527f4e6f7468696e6720746f207472616e7366657200000000000000000000000000604482015290519081900360640190fd5b6000805460408051600160e01b63095ea7b30281523360048201526024810185905290516001600160a01b039092169263095ea7b3926044808401936020939083900390910190829087803b15801561027e57600080fd5b505af1158015610292573d6000803e3d6000fd5b505050506040513d60208110156102a857600080fd5b50506000805460015460408051600160e01b6323b872dd0281526001600160a01b03928316600482015233602482015260448101869052905191909216926323b872dd92606480820193602093909283900390910190829087803b15801561030f57600080fd5b505af1158015610323573d6000803e3d6000fd5b505050506040513d602081101561033957600080fd5b505050565b60035443116103975760408051600160e51b62461bcd02815260206004820152601460248201527f41756374696f6e206973206e6f7420656e646564000000000000000000000000604482015290519081900360640190fd5b6009546001600160a01b031633146103f95760408051600160e51b62461bcd02815260206004820152601c60248201527f4f6e6c792073656c6c65722063616e20636c61696d20746f6b656e7300000000604482015290519081900360640190fd5b6000805460095460075460408051600160e01b63095ea7b30281526001600160a01b039384166004820152602481019290925251919092169263095ea7b392604480820193602093909283900390910190829087803b15801561045b57600080fd5b505af115801561046f573d6000803e3d6000fd5b505050506040513d602081101561048557600080fd5b505060075460009061049e90606963ffffffff61090f16565b90506104b181606463ffffffff61097416565b90506104c8600754826109e190919063ffffffff16565b6000546001546007549293506001600160a01b03918216926323b872dd929091169033906104f690866109e1565b6040805163ffffffff861660e01b81526001600160a01b0394851660048201529290931660248301526044820152905160648083019260209291908290030181600087803b15801561054757600080fd5b505af115801561055b573d6000803e3d6000fd5b505050506040513d602081101561057157600080fd5b50506000805460085460408051600160e01b63095ea7b30281526001600160a01b039283166004820152602481018690529051919092169263095ea7b392604480820193602093909283900390910190829087803b1580156105d257600080fd5b505af11580156105e6573d6000803e3d6000fd5b505050506040513d60208110156105fc57600080fd5b50506000805460015460085460408051600160e01b6323b872dd0281526001600160a01b0393841660048201529183166024830152604482018690525191909216926323b872dd92606480820193602093909283900390910190829087803b15801561030f57600080fd5b60025481565b6006546001600160a01b031681565b60035443106106d55760408051600160e51b62461bcd02815260206004820152601160248201527f41756374696f6e2068617320656e646564000000000000000000000000000000604482015290519081900360640190fd5b60055460005460408051600160e01b6370a0823102815233600482015290516001600160a01b03909216916370a0823191602480820192602092909190829003018186803b15801561072657600080fd5b505afa15801561073a573d6000803e3d6000fd5b505050506040513d602081101561075057600080fd5b505110156107a85760408051600160e51b62461bcd02815260206004820152601060248201527f4e6f7420656e6f7567682066756e647300000000000000000000000000000000604482015290519081900360640190fd5b60075481116108015760408051600160e51b62461bcd02815260206004820152601c60248201527f426964206973206c657373207468656e20686967686573742062696400000000604482015290519081900360640190fd5b6000805460015460408051600160e01b63a9059cbb0281526001600160a01b039283166004820152602481018690529051919092169263a9059cbb92604480820193602093909283900390910190829087803b15801561086057600080fd5b505af1158015610874573d6000803e3d6000fd5b505050506040513d602081101561088a57600080fd5b50506007819055600680546001600160a01b031916339081179091556000908152600b6020526040902054156108f357336000908152600b6020526040812054906108db828463ffffffff610a4116565b336000908152600b6020526040902055506109069050565b336000908152600b602052604090208190555b50565b60075481565b60008261091e5750600061096e565b8282028284828161092b57fe5b041461096b57604051600160e51b62461bcd028152600401808060200182810382526021815260200180610a9f6021913960400191505060405180910390fd5b90505b92915050565b60008082116109cd5760408051600160e51b62461bcd02815260206004820152601a60248201527f536166654d6174683a206469766973696f6e206279207a65726f000000000000604482015290519081900360640190fd5b60008284816109d857fe5b04949350505050565b600082821115610a3b5760408051600160e51b62461bcd02815260206004820152601e60248201527f536166654d6174683a207375627472616374696f6e206f766572666c6f770000604482015290519081900360640190fd5b50900390565b60008282018381101561096b5760408051600160e51b62461bcd02815260206004820152601b60248201527f536166654d6174683a206164646974696f6e206f766572666c6f770000000000604482015290519081900360640190fdfe536166654d6174683a206d756c7469706c69636174696f6e206f766572666c6f77a165627a7a72305820f1903f923ae5bb4f574b68bfe352a4f427579d2c5e9d28b13bc92033f8993bad002941756374696f6e2073746172742074696d652069732067726561746572207468616e20656e642074696d65a165627a7a723058206982c608212226bfac205b422129b3b39bfb6ac0e53f1ab97ad001508ff74ca90029",
  "source": "pragma solidity ^0.5.0;\n\nimport './VSTToken.sol';\nimport '@openzeppelin/contracts/math/SafeMath.sol';\n\ncontract Store {\n    VSTToken Token;\n    constructor(address _tokenAddress) public {\n        tokenAddress = _tokenAddress;\n        Token = VSTToken(tokenAddress);\n        contractAddress = address(this);\n    }\n    address contractAddress;\n    address tokenAddress;\n    mapping(string => Product) public products;\n    mapping(address => Deal ) public deals;\n    string[] public productIndex;\n\n    // related with auction\n    ProductAutcion[] public auctions;\n    mapping(string => ProductAutcion[]) auctionsMapping;\n\n    struct Product {\n        string name;\n        uint price;\n        address payable owner;\n        bool purchased;\n    }\n\n    struct Deal {\n        string name;\n        uint price;\n        address payable seller;\n        address payable buyer;\n        bool isDone;\n    }\n\n    event ProductCreated(\n        string name,\n        uint price,\n        address payable owner,\n        bool purchased\n    );\n\n    event ProductPurchased(\n        string name,\n        uint price,\n        address payable owner,\n        bool purchased\n    );\n\n    event DealCreated(\n        string name,\n        uint price,\n        address seller,\n        address buyer\n    );\n\n    function checkBalance(address _address) public view returns (uint _balance) {\n        return Token.balanceOf(_address);\n    }\n// regular sale for pt1 and pt2\n    function sellProduct(string memory _name, uint _price) public {\n        // Require a valid name\n        require(bytes(_name).length > 0, \"Invalid name\");\n        // Require a valid price\n        require(_price > 0, \"Invalid price\");\n        // Increment product count\n        // Create the product\n        products[_name] = Product(_name, _price, msg.sender, false);\n        // add index to an array\n        productIndex.push(_name);\n        // Trigger an event\n        emit ProductCreated(_name, _price, msg.sender, false);\n    }\n\n// overloaded sale method for auction feature\n    function sellProduct (\n        string memory _name,\n        uint _price,\n        uint _time\n    )\n        public\n        returns (bool)\n    {\n        require(bytes(_name).length > 0, \"Invalid name\");\n        require(_price > 0, \"Invalid price\");\n\n        // convert time to seconds\n        //_time should be in minutes => block time in eth network avg 14 sec according to etherscan stats\n        // end block time = block.now + ( minutes / 14 sec )\n        uint startBlock = block.number;\n        uint auctionDuration = _time;\n        auctionDuration = auctionDuration * 60 seconds;\n        uint blockCreationTime = 14 seconds;\n        uint endBlock = startBlock + (_time / blockCreationTime);\n\n        // factory function that creates auction for the product\n        // define _benef and _owner\n        // @TODO\n        auctionFactory(startBlock, endBlock, _name, _price, msg.sender, contractAddress, tokenAddress);\n    }\n    function purchaseProduct(string memory _name) public payable returns (bool) {\n        // Fetch the product\n        Product memory _product = products[_name];\n        // Fetch the owner\n        address payable _seller = _product.owner;\n        address payable _buyer = msg.sender;\n        // Require that the buyer is not the seller\n        require(_seller != _buyer, \"Cant buy your own product\");\n        // Check buyer token balance\n        uint buyerBalance = checkBalance(_buyer);\n        require(buyerBalance >= _product.price, \"Not enough funds\");\n        // Trigger an event\n        emit ProductPurchased(_product.name, _product.price, _buyer, true);\n        // Delete the product => set its values to 0\n        delete products[_name];\n        // remove _name from an array\n        // @dev delete productIndex[uint key]\n        // add product to deals mapping\n        deals[_seller] = Deal(_name, _product.price, _seller, _buyer, false);\n        emit DealCreated(_name, _product.price, _seller, _buyer);\n        return true;\n    }\n\n    function productCount() public view returns (uint count) {\n        count = productIndex.length;\n    }\n    function auctionCount() public view returns (uint count) {\n        count = auctions.length;\n    }\n\n    function clearDeal(address _seller) public {\n        return delete deals[_seller];\n    }\n\n    function auctionFactory(\n        uint _startBlock,\n        uint _endBlock,\n        string memory _name,\n        uint _price,\n        address payable _beneficiary,\n        address _owner,\n        address _token\n    )\n        internal\n    {\n        // need to create contract with these parameters\n        ProductAutcion newAuction = new ProductAutcion(_startBlock, _endBlock, _name, _price, _beneficiary, _owner, _token);\n        auctionsMapping[_name].push(newAuction);\n        auctions.push(newAuction);\n    }\n}\n\ncontract ProductAutcion {\n    using SafeMath for uint;\n\n    VSTToken Token;\n    address productAuction;\n    // Auction state\n    uint public startBlock;\n    uint public endBlock;\n    string name;\n    uint price;\n    address public highestBidder;\n    uint public highestBid;\n    address owner;\n    address payable beneficiary;\n    address store;\n    // bidders funds\n    mapping(address => uint) pendingReturns;\n\n    constructor(\n        uint _startBlock,\n        uint _endBlock,\n        string memory _name,\n        uint _price,\n        address payable _beneficiary,\n        address _owner,\n        address _token\n    )\n        public\n    {\n        require(_startBlock >= _endBlock, \"Auction start time is greater than end time\");\n        require(_startBlock < block.number, \"Incorrect start time\");\n        require(_owner != address(0), \"Owner not specified\");\n\n        productAuction = address(this);\n        Token = VSTToken(_token);\n        startBlock = _startBlock;\n        endBlock = _endBlock;\n        name = _name;\n        price = _price;\n        beneficiary = _beneficiary;\n        owner = _owner;\n    }\n        // store users bids\n    function placeBid(uint tokenAmmount) public onlyBeforeEnd {\n        // check balance\n        require(Token.balanceOf(msg.sender) >= price, 'Not enough funds');\n        // check highest bid, if less => revert\n        require(tokenAmmount > highestBid, 'Bid is less then highest bid');\n        Token.transfer(productAuction, tokenAmmount);\n        highestBid = tokenAmmount;\n        highestBidder = msg.sender;\n        // add to bidders pool\n        if (pendingReturns[msg.sender] > 0) {\n            uint pastBid = pendingReturns[msg.sender];\n            uint newBid = pastBid.add(tokenAmmount);\n            pendingReturns[msg.sender] = newBid;\n        }\n        else {\n            pendingReturns[msg.sender] = tokenAmmount;\n        }\n    }\n\n        // withdraw funds if not the winner\n        function withdraw() public onlyAfterAuction {\n            require(msg.sender != highestBidder, \"Can't withdraw\");\n            uint balance = pendingReturns[msg.sender];\n            require(balance > 0, \"Nothing to transfer\");\n            Token.approve(msg.sender, balance);\n            Token.transferFrom(productAuction, msg.sender, balance);\n        }\n\n        function claimTokens() public onlyAfterAuction {\n            require(msg.sender == beneficiary, \"Only seller can claim tokens\");\n            Token.approve(beneficiary, highestBid);\n            // calc 5% commission\n            uint commission = highestBid.mul(105);\n            commission = commission.div(100);\n            commission = commission.sub(highestBid);\n            // send to seller\n            Token.transferFrom(productAuction, msg.sender, highestBid.sub(commission));\n            // send 5% to store\n            Token.approve(owner, commission);\n            Token.transferFrom(productAuction, owner, commission);\n        }\n\n        modifier onlyBeforeEnd {\n            require(block.number < endBlock, \"Auction has ended\");\n            _;\n        }\n\n        modifier onlyAfterAuction {\n            require(block.number > endBlock, \"Auction is not ended\");\n            _;\n        }\n\n\n\n}",
  "sourcePath": "/Users/roman/Documents/Projects/VST/contracts/Store.sol",
  "compiler": {
    "name": "solc",
    "version": "0.5.8+commit.23d335f2.Emscripten.clang"
  },
  "schemaVersion": "3.0.16",
  "updatedAt": "2019-10-21T15:10:38.026Z",
  "devdoc": {
    "methods": {}
  },
  "userdoc": {
    "methods": {}
  }
}