{
  "contractName": "Store",
  "abi": [
    {
      "constant": true,
      "inputs": [
        {
          "name": "",
          "type": "string"
        }
      ],
      "name": "products",
      "outputs": [
        {
          "name": "name",
          "type": "string"
        },
        {
          "name": "price",
          "type": "uint256"
        },
        {
          "name": "owner",
          "type": "address"
        },
        {
          "name": "purchased",
          "type": "bool"
        }
      ],
      "payable": false,
      "stateMutability": "view",
      "type": "function"
    },
    {
      "constant": true,
      "inputs": [],
      "name": "productCount",
      "outputs": [
        {
          "name": "",
          "type": "uint256"
        }
      ],
      "payable": false,
      "stateMutability": "view",
      "type": "function"
    },
    {
      "anonymous": false,
      "inputs": [
        {
          "indexed": false,
          "name": "name",
          "type": "string"
        },
        {
          "indexed": false,
          "name": "price",
          "type": "uint256"
        },
        {
          "indexed": false,
          "name": "owner",
          "type": "address"
        },
        {
          "indexed": false,
          "name": "purchased",
          "type": "bool"
        }
      ],
      "name": "ProductCreated",
      "type": "event"
    },
    {
      "anonymous": false,
      "inputs": [
        {
          "indexed": false,
          "name": "name",
          "type": "string"
        },
        {
          "indexed": false,
          "name": "price",
          "type": "uint256"
        },
        {
          "indexed": false,
          "name": "owner",
          "type": "address"
        },
        {
          "indexed": false,
          "name": "purchased",
          "type": "bool"
        }
      ],
      "name": "ProductPurchased",
      "type": "event"
    },
    {
      "constant": false,
      "inputs": [
        {
          "name": "_name",
          "type": "string"
        },
        {
          "name": "_price",
          "type": "uint256"
        }
      ],
      "name": "sellProduct",
      "outputs": [],
      "payable": false,
      "stateMutability": "nonpayable",
      "type": "function"
    },
    {
      "constant": false,
      "inputs": [
        {
          "name": "_name",
          "type": "string"
        }
      ],
      "name": "purchaseProduct",
      "outputs": [],
      "payable": true,
      "stateMutability": "payable",
      "type": "function"
    }
  ],
  "bytecode": "0x608060405234801561001057600080fd5b50610b45806100206000396000f3fe60806040526004361061003f5760003560e01c80630186a42314610044578063172c087f1461019a57806319f9292614610251578063e0f6ef87146102f7575b600080fd5b34801561005057600080fd5b506100f76004803603602081101561006757600080fd5b81019060208101813564010000000081111561008257600080fd5b82018360208201111561009457600080fd5b803590602001918460018302840111640100000000831117156100b657600080fd5b91908080601f01602080910402602001604051908101604052809392919081815260200183838082843760009201919091525092955061031e945050505050565b6040518080602001858152602001846001600160a01b03166001600160a01b0316815260200183151515158152602001828103825286818151815260200191508051906020019080838360005b8381101561015c578181015183820152602001610144565b50505050905090810190601f1680156101895780820380516001836020036101000a031916815260200191505b509550505050505060405180910390f35b3480156101a657600080fd5b5061024f600480360360408110156101bd57600080fd5b8101906020810181356401000000008111156101d857600080fd5b8201836020820111156101ea57600080fd5b8035906020019184600183028401116401000000008311171561020c57600080fd5b91908080601f01602080910402602001604051908101604052809392919081815260200183838082843760009201919091525092955050913592506103e8915050565b005b61024f6004803603602081101561026757600080fd5b81019060208101813564010000000081111561028257600080fd5b82018360208201111561029457600080fd5b803590602001918460018302840111640100000000831117156102b657600080fd5b91908080601f01602080910402602001604051908101604052809392919081815260200183838082843760009201919091525092955061065e945050505050565b34801561030357600080fd5b5061030c6109fe565b60408051918252519081900360200190f35b8051602081830181018051600180835293830194830194909420939052825460408051600294831615610100026000190190921693909304601f81018390048302820183019093528281529183918301828280156103bd5780601f10610392576101008083540402835291602001916103bd565b820191906000526020600020905b8154815290600101906020018083116103a057829003601f168201915b5050505060018301546002909301549192916001600160a01b0381169150600160a01b900460ff1684565b60008251116104415760408051600160e51b62461bcd02815260206004820152600c60248201527f496e76616c6964206e616d650000000000000000000000000000000000000000604482015290519081900360640190fd5b600081116104995760408051600160e51b62461bcd02815260206004820152600d60248201527f496e76616c696420707269636500000000000000000000000000000000000000604482015290519081900360640190fd5b6040518060800160405280838152602001828152602001336001600160a01b03168152602001600015158152506001836040518082805190602001908083835b602083106104f85780518252601f1990920191602091820191016104d9565b51815160209384036101000a600019018019909216911617905292019485525060405193849003810190932084518051919461053994508593500190610a04565b50602082810151600180840191909155604080850151600290940180546060968701511515600160a01b0274ff0000000000000000000000000000000000000000196001600160a01b039097166001600160a01b0319909216919091179590951694909417909355600080549091018155825180830186905233938101849052938401819052608080855286519085015285517f8075e725aa7828dccdbc60d5b4692e5ecb19c1ec33df4d79dc1129227cea39a29487948794909392829160a083019190880190808383885b8381101561061d578181015183820152602001610605565b50505050905090810190601f16801561064a5780820380516001836020036101000a031916815260200191505b509550505050505060405180910390a15050565b610666610a82565b6001826040518082805190602001908083835b602083106106985780518252601f199092019160209182019101610679565b518151600019602094850361010090810a82019283169219939093169190911790925294909201968752604080519788900382018820805460a0601f600260018416159099029096019091169690960493840183900490920288018501905260808701828152909550869450928592508401828280156107595780601f1061072e57610100808354040283529160200191610759565b820191906000526020600020905b81548152906001019060200180831161073c57829003601f168201915b505050918352505060018201546020808301919091526002909201546001600160a01b038116604080840191909152600160a01b90910460ff16151560609092019190915282015190820151919250903410156108005760408051600160e51b62461bcd02815260206004820152601060248201527f4e6f7420656e6f7567682066756e647300000000000000000000000000000000604482015290519081900360640190fd5b6001600160a01b0381163314156108615760408051600160e51b62461bcd02815260206004820152601960248201527f43616e742062757920796f7572206f776e2070726f6475637400000000000000604482015290519081900360640190fd5b6040516001600160a01b038216903480156108fc02916000818181858888f19350505050158015610896573d6000803e3d6000fd5b506001600054036000819055507f684f6cb1148636eef80c272a709a0d4153ae81062cf0c3f521bb4d44259c6128826000015183602001513360016040518080602001858152602001846001600160a01b03166001600160a01b0316815260200183151515158152602001828103825286818151815260200191508051906020019080838360005b8381101561093657818101518382015260200161091e565b50505050905090810190601f1680156109635780820380516001836020036101000a031916815260200191505b509550505050505060405180910390a16001836040518082805190602001908083835b602083106109a55780518252601f199092019160209182019101610986565b51815160209384036101000a600019018019909216911617905292019485525060405193849003019092209150600090506109e08282610ab5565b506000600182015560020180546001600160a81b0319169055505050565b60005481565b828054600181600116156101000203166002900490600052602060002090601f016020900481019282601f10610a4557805160ff1916838001178555610a72565b82800160010185558215610a72579182015b82811115610a72578251825591602001919060010190610a57565b50610a7e929150610afc565b5090565b6040518060800160405280606081526020016000815260200160006001600160a01b031681526020016000151581525090565b50805460018160011615610100020316600290046000825580601f10610adb5750610af9565b601f016020900490600052602060002090810190610af99190610afc565b50565b610b1691905b80821115610a7e5760008155600101610b02565b9056fea165627a7a72305820229db868aad4fe49c88f19e6e5e0e9ca26961e3e6cf34c63a92399a3d7120e0c0029",
  "source": "pragma solidity ^0.5.0;\n\nimport \"./VSTToken.sol\";\n\n/**\nWrite a Store contract with following methods:\n sell(_productName, _price) and buy(_productName).\n Invoking of sell method will record in smart contract the price of the product at which you can buy this product.\n Invoking the buy method will remove the product from smart contract and will transfer the corresponding amount of VST tokens from buyer to seller.\n */\n\ncontract Store {\n    uint public productCount;\n    mapping(string => Product) public products;\n    VSTToken s;\n    struct Product {\n        string name;\n        uint price;\n        address payable owner;\n        bool purchased;\n    }\n\n    event ProductCreated(\n        string name,\n        uint price,\n        address payable owner,\n        bool purchased\n    );\n\n    event ProductPurchased(\n        string name,\n        uint price,\n        address payable owner,\n        bool purchased\n    );\n\n    function sellProduct(string memory _name, uint _price) public {\n        // Require a valid name\n        require(bytes(_name).length > 0, \"Invalid name\");\n        // Require a valid price\n        require(_price > 0, \"Invalid price\");\n        // Increment product count\n        // Create the product\n        products[_name] = Product(_name, _price, msg.sender, false);\n        productCount++;\n        // Trigger an event\n        emit ProductCreated(_name, _price, msg.sender, false);\n    }\n\n    function purchaseProduct(string memory _name) public payable {\n        // Fetch the product\n        Product memory _product = products[_name];\n        // Fetch the owner\n        address payable _seller = _product.owner;\n        /**\n        *   @dev Implement balance check for buyer tokens ammount\n        */\n        // Require that there is enough Ether in the transaction\n        require(msg.value >= _product.price, \"Not enough funds\");\n        // Require that the buyer is not the seller\n        require(_seller != msg.sender, \"Cant buy your own product\");\n        // Pay the seller by sending them Ether\n        /**\n        *    @dev Implement transfer of tokens to buyer\n        */\n        address(_seller).transfer(msg.value);\n        // Trigger an event\n        productCount = productCount - 1;\n        emit ProductPurchased(_product.name, _product.price, msg.sender, true);\n        // Delete the product => set its values to 0\n        delete products[_name];\n    }\n}",
  "sourcePath": "/Users/roman/Documents/Projects/VST/contracts/Store.sol",
  "compiler": {
    "name": "solc",
    "version": "0.5.8+commit.23d335f2.Emscripten.clang"
  },
  "schemaVersion": "3.0.16",
  "updatedAt": "2019-10-04T14:15:49.084Z",
  "devdoc": {
    "methods": {}
  },
  "userdoc": {
    "methods": {},
    "notice": "Write a Store contract with following methods: sell(_productName, _price) and buy(_productName). Invoking of sell method will record in smart contract the price of the product at which you can buy this product. Invoking the buy method will remove the product from smart contract and will transfer the corresponding amount of VST tokens from buyer to seller."
  }
}