{
  "contractName": "Store",
  "abi": [
    {
      "constant": true,
      "inputs": [
        {
          "name": "",
          "type": "string"
        }
      ],
      "name": "products",
      "outputs": [
        {
          "name": "name",
          "type": "string"
        },
        {
          "name": "price",
          "type": "uint256"
        },
        {
          "name": "owner",
          "type": "address"
        },
        {
          "name": "purchased",
          "type": "bool"
        }
      ],
      "payable": false,
      "stateMutability": "view",
      "type": "function"
    },
    {
      "constant": true,
      "inputs": [
        {
          "name": "",
          "type": "address"
        }
      ],
      "name": "deals",
      "outputs": [
        {
          "name": "name",
          "type": "string"
        },
        {
          "name": "price",
          "type": "uint256"
        },
        {
          "name": "seller",
          "type": "address"
        },
        {
          "name": "buyer",
          "type": "address"
        },
        {
          "name": "isDone",
          "type": "bool"
        }
      ],
      "payable": false,
      "stateMutability": "view",
      "type": "function"
    },
    {
      "constant": true,
      "inputs": [
        {
          "name": "",
          "type": "uint256"
        }
      ],
      "name": "productIndex",
      "outputs": [
        {
          "name": "",
          "type": "string"
        }
      ],
      "payable": false,
      "stateMutability": "view",
      "type": "function"
    },
    {
      "constant": true,
      "inputs": [],
      "name": "contractAddress",
      "outputs": [
        {
          "name": "",
          "type": "address"
        }
      ],
      "payable": false,
      "stateMutability": "view",
      "type": "function"
    },
    {
      "inputs": [
        {
          "name": "tokenAddress",
          "type": "address"
        }
      ],
      "payable": false,
      "stateMutability": "nonpayable",
      "type": "constructor"
    },
    {
      "anonymous": false,
      "inputs": [
        {
          "indexed": false,
          "name": "name",
          "type": "string"
        },
        {
          "indexed": false,
          "name": "price",
          "type": "uint256"
        },
        {
          "indexed": false,
          "name": "owner",
          "type": "address"
        },
        {
          "indexed": false,
          "name": "purchased",
          "type": "bool"
        }
      ],
      "name": "ProductCreated",
      "type": "event"
    },
    {
      "anonymous": false,
      "inputs": [
        {
          "indexed": false,
          "name": "name",
          "type": "string"
        },
        {
          "indexed": false,
          "name": "price",
          "type": "uint256"
        },
        {
          "indexed": false,
          "name": "owner",
          "type": "address"
        },
        {
          "indexed": false,
          "name": "purchased",
          "type": "bool"
        }
      ],
      "name": "ProductPurchased",
      "type": "event"
    },
    {
      "anonymous": false,
      "inputs": [
        {
          "indexed": false,
          "name": "name",
          "type": "string"
        },
        {
          "indexed": false,
          "name": "price",
          "type": "uint256"
        },
        {
          "indexed": false,
          "name": "seller",
          "type": "address"
        },
        {
          "indexed": false,
          "name": "buyer",
          "type": "address"
        }
      ],
      "name": "DealCreated",
      "type": "event"
    },
    {
      "constant": true,
      "inputs": [
        {
          "name": "_address",
          "type": "address"
        }
      ],
      "name": "checkBalance",
      "outputs": [
        {
          "name": "_balance",
          "type": "uint256"
        }
      ],
      "payable": false,
      "stateMutability": "view",
      "type": "function"
    },
    {
      "constant": false,
      "inputs": [
        {
          "name": "_name",
          "type": "string"
        },
        {
          "name": "_price",
          "type": "uint256"
        }
      ],
      "name": "sellProduct",
      "outputs": [],
      "payable": false,
      "stateMutability": "nonpayable",
      "type": "function"
    },
    {
      "constant": false,
      "inputs": [
        {
          "name": "_name",
          "type": "string"
        }
      ],
      "name": "purchaseProduct",
      "outputs": [
        {
          "name": "",
          "type": "bool"
        }
      ],
      "payable": true,
      "stateMutability": "payable",
      "type": "function"
    },
    {
      "constant": true,
      "inputs": [],
      "name": "productCount",
      "outputs": [
        {
          "name": "count",
          "type": "uint256"
        }
      ],
      "payable": false,
      "stateMutability": "view",
      "type": "function"
    },
    {
      "constant": false,
      "inputs": [
        {
          "name": "_seller",
          "type": "address"
        }
      ],
      "name": "clearDeal",
      "outputs": [],
      "payable": false,
      "stateMutability": "nonpayable",
      "type": "function"
    }
  ],
  "bytecode": "0x608060405234801561001057600080fd5b506040516020806111fa8339810180604052602081101561003057600080fd5b5051600080546001600160a01b039092166001600160a01b031992831617905560018054909116301790556111908061006a6000396000f3fe6080604052600436106100865760003560e01c80633227a3d4116100595780633227a3d414610385578063322d5a331461045c5780635f515226146104fb578063e0f6ef8714610540578063f6b4dfb41461055557610086565b80630186a4231461008b578063172c087f146101e157806319f9292614610298578063277f050b14610352575b600080fd5b34801561009757600080fd5b5061013e600480360360208110156100ae57600080fd5b8101906020810181356401000000008111156100c957600080fd5b8201836020820111156100db57600080fd5b803590602001918460018302840111640100000000831117156100fd57600080fd5b91908080601f016020809104026020016040519081016040528093929190818152602001838380828437600092019190915250929550610586945050505050565b6040518080602001858152602001846001600160a01b03166001600160a01b0316815260200183151515158152602001828103825286818151815260200191508051906020019080838360005b838110156101a357818101518382015260200161018b565b50505050905090810190601f1680156101d05780820380516001836020036101000a031916815260200191505b509550505050505060405180910390f35b3480156101ed57600080fd5b506102966004803603604081101561020457600080fd5b81019060208101813564010000000081111561021f57600080fd5b82018360208201111561023157600080fd5b8035906020019184600183028401116401000000008311171561025357600080fd5b91908080601f016020809104026020016040519081016040528093929190818152602001838380828437600092019190915250929550509135925061064f915050565b005b61033e600480360360208110156102ae57600080fd5b8101906020810181356401000000008111156102c957600080fd5b8201836020820111156102db57600080fd5b803590602001918460018302840111640100000000831117156102fd57600080fd5b91908080601f01602080910402602001604051908101604052809392919081815260200183838082843760009201919091525092955061090d945050505050565b604080519115158252519081900360200190f35b34801561035e57600080fd5b506102966004803603602081101561037557600080fd5b50356001600160a01b0316610df9565b34801561039157600080fd5b506103b8600480360360208110156103a857600080fd5b50356001600160a01b0316610e4b565b6040805160208082018790526001600160a01b03808716938301939093529184166060820152821515608082015260a080825287519082015286519091829160c083019189019080838360005b8381101561041d578181015183820152602001610405565b50505050905090810190601f16801561044a5780820380516001836020036101000a031916815260200191505b50965050505050505060405180910390f35b34801561046857600080fd5b506104866004803603602081101561047f57600080fd5b5035610f18565b6040805160208082528351818301528351919283929083019185019080838360005b838110156104c05781810151838201526020016104a8565b50505050905090810190601f1680156104ed5780820380516001836020036101000a031916815260200191505b509250505060405180910390f35b34801561050757600080fd5b5061052e6004803603602081101561051e57600080fd5b50356001600160a01b0316610fbe565b60408051918252519081900360200190f35b34801561054c57600080fd5b5061052e611041565b34801561056157600080fd5b5061056a611047565b604080516001600160a01b039092168252519081900360200190f35b805180820160209081018051600280835293830194830194909420939052825460408051601f6000196101006001861615020190931694909404918201839004830284018301905280835283918301828280156106245780601f106105f957610100808354040283529160200191610624565b820191906000526020600020905b81548152906001019060200180831161060757829003601f168201915b5050505060018301546002909301549192916001600160a01b0381169150600160a01b900460ff1684565b60008251116106a85760408051600160e51b62461bcd02815260206004820152600c60248201527f496e76616c6964206e616d650000000000000000000000000000000000000000604482015290519081900360640190fd5b600081116107005760408051600160e51b62461bcd02815260206004820152600d60248201527f496e76616c696420707269636500000000000000000000000000000000000000604482015290519081900360640190fd5b6040518060800160405280838152602001828152602001336001600160a01b03168152602001600015158152506002836040518082805190602001908083835b6020831061075f5780518252601f199092019160209182019101610740565b51815160209384036101000a60001901801990921691161790529201948552506040519384900381019093208451805191946107a094508593500190611056565b506020828101516001808401919091556040840151600290930180546060909501511515600160a01b02600160a01b60ff02196001600160a01b039095166001600160a01b0319909616959095179390931693909317909155600480549283018082556000919091528451909261083f927f8a35acfbc15ff81a39ae7d344fd709f28e8600b4aa8c65c6b64bfe7fe36bd19b9091019190860190611056565b50507f8075e725aa7828dccdbc60d5b4692e5ecb19c1ec33df4d79dc1129227cea39a282823360006040518080602001858152602001846001600160a01b03166001600160a01b0316815260200183151515158152602001828103825286818151815260200191508051906020019080838360005b838110156108cc5781810151838201526020016108b4565b50505050905090810190601f1680156108f95780820380516001836020036101000a031916815260200191505b509550505050505060405180910390a15050565b60006109176110d4565b6002836040518082805190602001908083835b602083106109495780518252601f19909201916020918201910161092a565b518151600019602094850361010090810a82019283169219939093169190911790925294909201968752604080519788900382018820805460a0601f60026001841615909902909601909116969096049384018390049092028801850190526080870182815290955086945092859250840182828015610a0a5780601f106109df57610100808354040283529160200191610a0a565b820191906000526020600020905b8154815290600101906020018083116109ed57829003601f168201915b5050509183525050600182015460208201526002909101546001600160a01b03808216604080850191909152600160a01b90920460ff16151560609093019290925282015191925033908216811415610aad5760408051600160e51b62461bcd02815260206004820152601960248201527f43616e742062757920796f7572206f776e2070726f6475637400000000000000604482015290519081900360640190fd5b6000610ab882610fbe565b90508360200151811015610b165760408051600160e51b62461bcd02815260206004820152601060248201527f4e6f7420656e6f7567682066756e647300000000000000000000000000000000604482015290519081900360640190fd5b7f684f6cb1148636eef80c272a709a0d4153ae81062cf0c3f521bb4d44259c6128846000015185602001518460016040518080602001858152602001846001600160a01b03166001600160a01b0316815260200183151515158152602001828103825286818151815260200191508051906020019080838360005b83811015610ba9578181015183820152602001610b91565b50505050905090810190601f168015610bd65780820380516001836020036101000a031916815260200191505b509550505050505060405180910390a16002866040518082805190602001908083835b60208310610c185780518252601f199092019160209182019101610bf9565b51815160209384036101000a60001901801990921691161790529201948552506040519384900301909220915060009050610c538282611107565b50600060018201819055600290910180546001600160a81b03191690556040805160a081018252888152602087810151818301526001600160a01b0387811683850181905290871660608401526080830185905284526003815291909220825180519192610cc692849290910190611056565b5060208281015160018301556040808401516002840180546001600160a01b039283166001600160a01b031991821617909155606080870151600390960180546080988901511515600160a01b02600160a01b60ff021998861691909416179690961691909117909455888301518251808501829052898316938101939093529087169382019390935283815289519381019390935288517fbc1cb29dd68a6a2662f0789b9bf49259f0f3112fd8a4bc6334d606db3c29494b938a93928892889291829160a083019188019080838360005b83811015610db0578181015183820152602001610d98565b50505050905090810190601f168015610ddd5780820380516001836020036101000a031916815260200191505b509550505050505060405180910390a150600195945050505050565b6001600160a01b038116600090815260036020526040812090610e1c8282611107565b50600060018201556002810180546001600160a01b031916905560030180546001600160a81b03191690555b50565b60036020908152600091825260409182902080548351601f60026000196101006001861615020190931692909204918201849004840281018401909452808452909291839190830182828015610ee25780601f10610eb757610100808354040283529160200191610ee2565b820191906000526020600020905b815481529060010190602001808311610ec557829003601f168201915b5050505060018301546002840154600390940154929390926001600160a01b03918216925090811690600160a01b900460ff1685565b60048181548110610f2557fe5b600091825260209182902001805460408051601f6002600019610100600187161502019094169390930492830185900485028101850190915281815293509091830182828015610fb65780601f10610f8b57610100808354040283529160200191610fb6565b820191906000526020600020905b815481529060010190602001808311610f9957829003601f168201915b505050505081565b6000805460408051600160e01b6370a082310281526001600160a01b038581166004830152915191909216916370a08231916024808301926020929190829003018186803b15801561100f57600080fd5b505afa158015611023573d6000803e3d6000fd5b505050506040513d602081101561103957600080fd5b505192915050565b60045490565b6001546001600160a01b031681565b828054600181600116156101000203166002900490600052602060002090601f016020900481019282601f1061109757805160ff19168380011785556110c4565b828001600101855582156110c4579182015b828111156110c45782518255916020019190600101906110a9565b506110d0929150611147565b5090565b6040518060800160405280606081526020016000815260200160006001600160a01b031681526020016000151581525090565b50805460018160011615610100020316600290046000825580601f1061112d5750610e48565b601f016020900490600052602060002090810190610e4891905b61116191905b808211156110d0576000815560010161114d565b9056fea165627a7a723058206e52351cbf38f9b8ffd9dbc29d4e97e4058bc820734655b685b368f64a96082f0029",
  "source": "pragma solidity ^0.5.0;\n\nimport './VSTToken.sol';\n\n/**\nWrite a Store contract with following methods:\n sell(_productName, _price) and buy(_productName).\n Invoking of sell method will record in smart contract the price of the product at which you can buy this product.\n Invoking the buy method will remove the product from smart contract and will transfer the corresponding amount of VST tokens from buyer to seller.\n */\ncontract Store {\n    VSTToken internal Token;\n    constructor(address tokenAddress) public {\n        Token = VSTToken(tokenAddress);\n        contractAddress = address(this);\n    }\n    address public contractAddress;\n    mapping(string => Product) public products;\n    mapping(address => Deal ) public deals;\n    string[] public productIndex;\n\n    struct Product {\n        string name;\n        uint price;\n        address payable owner;\n        bool purchased;\n    }\n\n    struct Deal {\n        string name;\n        uint price;\n        address payable seller;\n        address payable buyer;\n        bool isDone;\n    }\n\n    event ProductCreated(\n        string name,\n        uint price,\n        address payable owner,\n        bool purchased\n    );\n\n    event ProductPurchased(\n        string name,\n        uint price,\n        address payable owner,\n        bool purchased\n    );\n\n    event DealCreated(\n        string name,\n        uint price,\n        address seller,\n        address buyer\n    );\n\n    function checkBalance(address _address) public view returns (uint _balance) {\n        return Token.balanceOf(_address);\n    }\n\n    function sellProduct(string memory _name, uint _price) public {\n        // Require a valid name\n        require(bytes(_name).length > 0, \"Invalid name\");\n        // Require a valid price\n        require(_price > 0, \"Invalid price\");\n        // Increment product count\n        // Create the product\n        products[_name] = Product(_name, _price, msg.sender, false);\n        // add index to an array\n        productIndex.push(_name);\n        // Trigger an event\n        emit ProductCreated(_name, _price, msg.sender, false);\n    }\n\n    function purchaseProduct(string memory _name) public payable returns (bool) {\n        // Fetch the product\n        Product memory _product = products[_name];\n        // Fetch the owner\n        address payable _seller = _product.owner;\n        address payable _buyer = msg.sender;\n        // Require that the buyer is not the seller\n        require(_seller != _buyer, \"Cant buy your own product\");\n        // Check buyer token balance\n        uint buyerBalance = checkBalance(_buyer);\n        require(buyerBalance >= _product.price, \"Not enough funds\");\n        // Trigger an event\n        emit ProductPurchased(_product.name, _product.price, _buyer, true);\n        // Delete the product => set its values to 0\n        delete products[_name];\n        // remove _name from an array\n        // @dev delete productIndex[uint key]\n        // add product to deals mapping\n        deals[_seller] = Deal(_name, _product.price, _seller, _buyer, false);\n        emit DealCreated(_name, _product.price, _seller, _buyer);\n        return true;\n    }\n\n    function productCount() public view returns (uint count) {\n        count = productIndex.length;\n    }\n\n    function clearDeal(address _seller) public {\n        return delete deals[_seller];\n    }\n}",
  "sourcePath": "/Users/roman/Documents/Projects/VST/contracts/Store.sol",
  "compiler": {
    "name": "solc",
    "version": "0.5.8+commit.23d335f2.Emscripten.clang"
  },
  "schemaVersion": "3.0.16",
  "updatedAt": "2019-10-15T14:16:25.428Z",
  "devdoc": {
    "methods": {}
  },
  "userdoc": {
    "methods": {},
    "notice": "Write a Store contract with following methods: sell(_productName, _price) and buy(_productName). Invoking of sell method will record in smart contract the price of the product at which you can buy this product. Invoking the buy method will remove the product from smart contract and will transfer the corresponding amount of VST tokens from buyer to seller."
  }
}