{
  "contractName": "Store",
  "abi": [
    {
      "constant": true,
      "inputs": [
        {
          "name": "",
          "type": "string"
        }
      ],
      "name": "products",
      "outputs": [
        {
          "name": "name",
          "type": "string"
        },
        {
          "name": "price",
          "type": "uint256"
        },
        {
          "name": "owner",
          "type": "address"
        },
        {
          "name": "purchased",
          "type": "bool"
        }
      ],
      "payable": false,
      "stateMutability": "view",
      "type": "function"
    },
    {
      "constant": true,
      "inputs": [
        {
          "name": "",
          "type": "uint256"
        }
      ],
      "name": "productIndex",
      "outputs": [
        {
          "name": "",
          "type": "string"
        }
      ],
      "payable": false,
      "stateMutability": "view",
      "type": "function"
    },
    {
      "inputs": [
        {
          "name": "tokenAddress",
          "type": "address"
        }
      ],
      "payable": false,
      "stateMutability": "nonpayable",
      "type": "constructor"
    },
    {
      "anonymous": false,
      "inputs": [
        {
          "indexed": false,
          "name": "name",
          "type": "string"
        },
        {
          "indexed": false,
          "name": "price",
          "type": "uint256"
        },
        {
          "indexed": false,
          "name": "owner",
          "type": "address"
        },
        {
          "indexed": false,
          "name": "purchased",
          "type": "bool"
        }
      ],
      "name": "ProductCreated",
      "type": "event"
    },
    {
      "anonymous": false,
      "inputs": [
        {
          "indexed": false,
          "name": "name",
          "type": "string"
        },
        {
          "indexed": false,
          "name": "price",
          "type": "uint256"
        },
        {
          "indexed": false,
          "name": "owner",
          "type": "address"
        },
        {
          "indexed": false,
          "name": "purchased",
          "type": "bool"
        }
      ],
      "name": "ProductPurchased",
      "type": "event"
    },
    {
      "constant": true,
      "inputs": [
        {
          "name": "_address",
          "type": "address"
        }
      ],
      "name": "checkBalance",
      "outputs": [
        {
          "name": "_balance",
          "type": "uint256"
        }
      ],
      "payable": false,
      "stateMutability": "view",
      "type": "function"
    },
    {
      "constant": false,
      "inputs": [
        {
          "name": "_buyer",
          "type": "address"
        },
        {
          "name": "_seller",
          "type": "address"
        },
        {
          "name": "_price",
          "type": "uint256"
        }
      ],
      "name": "transferFunds",
      "outputs": [
        {
          "name": "",
          "type": "bool"
        }
      ],
      "payable": false,
      "stateMutability": "nonpayable",
      "type": "function"
    },
    {
      "constant": false,
      "inputs": [
        {
          "name": "_name",
          "type": "string"
        },
        {
          "name": "_price",
          "type": "uint256"
        }
      ],
      "name": "sellProduct",
      "outputs": [],
      "payable": false,
      "stateMutability": "nonpayable",
      "type": "function"
    },
    {
      "constant": false,
      "inputs": [
        {
          "name": "_name",
          "type": "string"
        }
      ],
      "name": "purchaseProduct",
      "outputs": [],
      "payable": true,
      "stateMutability": "payable",
      "type": "function"
    },
    {
      "constant": true,
      "inputs": [],
      "name": "productCount",
      "outputs": [
        {
          "name": "count",
          "type": "uint256"
        }
      ],
      "payable": false,
      "stateMutability": "view",
      "type": "function"
    }
  ],
  "bytecode": "0x608060405234801561001057600080fd5b50604051602080610ed08339810180604052602081101561003057600080fd5b5051600080546001600160a01b039092166001600160a01b0319909216919091179055610e6e806100626000396000f3fe6080604052600436106100705760003560e01c806319f929261161004e57806319f92926146102d9578063322d5a331461037f5780635f5152261461041e578063e0f6ef871461046357610070565b80630186a423146100755780631501bf03146101cb578063172c087f14610222575b600080fd5b34801561008157600080fd5b506101286004803603602081101561009857600080fd5b8101906020810181356401000000008111156100b357600080fd5b8201836020820111156100c557600080fd5b803590602001918460018302840111640100000000831117156100e757600080fd5b91908080601f016020809104026020016040519081016040528093929190818152602001838380828437600092019190915250929550610478945050505050565b6040518080602001858152602001846001600160a01b03166001600160a01b0316815260200183151515158152602001828103825286818151815260200191508051906020019080838360005b8381101561018d578181015183820152602001610175565b50505050905090810190601f1680156101ba5780820380516001836020036101000a031916815260200191505b509550505050505060405180910390f35b3480156101d757600080fd5b5061020e600480360360608110156101ee57600080fd5b506001600160a01b03813581169160208101359091169060400135610542565b604080519115158252519081900360200190f35b34801561022e57600080fd5b506102d76004803603604081101561024557600080fd5b81019060208101813564010000000081111561026057600080fd5b82018360208201111561027257600080fd5b8035906020019184600183028401116401000000008311171561029457600080fd5b91908080601f01602080910402602001604051908101604052809392919081815260200183838082843760009201919091525092955050913592506105d9915050565b005b6102d7600480360360208110156102ef57600080fd5b81019060208101813564010000000081111561030a57600080fd5b82018360208201111561031c57600080fd5b8035906020019184600183028401116401000000008311171561033e57600080fd5b91908080601f0160208091040260200160405190810160405280939291908181526020018383808284376000920191909152509295506108a2945050505050565b34801561038b57600080fd5b506103a9600480360360208110156103a257600080fd5b5035610bfe565b6040805160208082528351818301528351919283929083019185019080838360005b838110156103e35781810151838201526020016103cb565b50505050905090810190601f1680156104105780820380516001836020036101000a031916815260200191505b509250505060405180910390f35b34801561042a57600080fd5b506104516004803603602081101561044157600080fd5b50356001600160a01b0316610ca4565b60408051918252519081900360200190f35b34801561046f57600080fd5b50610451610d27565b8051602081830181018051600180835293830194830194909420939052825460408051600294831615610100026000190190921693909304601f81018390048302820183019093528281529183918301828280156105175780601f106104ec57610100808354040283529160200191610517565b820191906000526020600020905b8154815290600101906020018083116104fa57829003601f168201915b5050505060018301546002909301549192916001600160a01b0381169150600160a01b900460ff1684565b6000805460408051600160e01b6323b872dd0281526001600160a01b038781166004830152868116602483015260448201869052915191909216916323b872dd91606480830192602092919082900301818787803b1580156105a357600080fd5b505af11580156105b7573d6000803e3d6000fd5b505050506040513d60208110156105cd57600080fd5b50600195945050505050565b60008251116106325760408051600160e51b62461bcd02815260206004820152600c60248201527f496e76616c6964206e616d650000000000000000000000000000000000000000604482015290519081900360640190fd5b6000811161068a5760408051600160e51b62461bcd02815260206004820152600d60248201527f496e76616c696420707269636500000000000000000000000000000000000000604482015290519081900360640190fd5b6040518060800160405280838152602001828152602001336001600160a01b03168152602001600015158152506001836040518082805190602001908083835b602083106106e95780518252601f1990920191602091820191016106ca565b51815160209384036101000a600019018019909216911617905292019485525060405193849003810190932084518051919461072a94508593500190610d2d565b506020828101516001808401919091556040840151600293840180546060909601511515600160a01b0274ff0000000000000000000000000000000000000000196001600160a01b039093166001600160a01b03199097169690961791909116949094179093558154928301808355600092909252845191926107d4927f405787fa12a823e0f2b7631cc41b3ba8828b3321ca811111fa75cd3aa3bb5ace90910191860190610d2d565b50507f8075e725aa7828dccdbc60d5b4692e5ecb19c1ec33df4d79dc1129227cea39a282823360006040518080602001858152602001846001600160a01b03166001600160a01b0316815260200183151515158152602001828103825286818151815260200191508051906020019080838360005b83811015610861578181015183820152602001610849565b50505050905090810190601f16801561088e5780820380516001836020036101000a031916815260200191505b509550505050505060405180910390a15050565b6108aa610dab565b6001826040518082805190602001908083835b602083106108dc5780518252601f1990920191602091820191016108bd565b518151600019602094850361010090810a82019283169219939093169190911790925294909201968752604080519788900382018820805460a0601f6002600184161590990290960190911696909604938401839004909202880185019052608087018281529095508694509285925084018282801561099d5780601f106109725761010080835404028352916020019161099d565b820191906000526020600020905b81548152906001019060200180831161098057829003601f168201915b5050509183525050600182015460208201526002909101546001600160a01b03808216604080850191909152600160a01b90920460ff161515606090930192909252820151919250339082161415610a3f5760408051600160e51b62461bcd02815260206004820152601960248201527f43616e742062757920796f7572206f776e2070726f6475637400000000000000604482015290519081900360640190fd5b6000610a4a33610ca4565b90508260200151811015610aa85760408051600160e51b62461bcd02815260206004820152601060248201527f4e6f7420656e6f7567682066756e647300000000000000000000000000000000604482015290519081900360640190fd5b610ab733838560200151610542565b5082516020808501516040805180840183905233918101829052600160608201819052608080835286519083015285517f684f6cb1148636eef80c272a709a0d4153ae81062cf0c3f521bb4d44259c61289695919291829160a083019188019080838360005b83811015610b35578181015183820152602001610b1d565b50505050905090810190601f168015610b625780820380516001836020036101000a031916815260200191505b509550505050505060405180910390a16001846040518082805190602001908083835b60208310610ba45780518252601f199092019160209182019101610b85565b51815160209384036101000a60001901801990921691161790529201948552506040519384900301909220915060009050610bdf8282610dde565b506000600182015560020180546001600160a81b031916905550505050565b60028181548110610c0b57fe5b600091825260209182902001805460408051601f6002600019610100600187161502019094169390930492830185900485028101850190915281815293509091830182828015610c9c5780601f10610c7157610100808354040283529160200191610c9c565b820191906000526020600020905b815481529060010190602001808311610c7f57829003601f168201915b505050505081565b6000805460408051600160e01b6370a082310281526001600160a01b038581166004830152915191909216916370a08231916024808301926020929190829003018186803b158015610cf557600080fd5b505afa158015610d09573d6000803e3d6000fd5b505050506040513d6020811015610d1f57600080fd5b505192915050565b60025490565b828054600181600116156101000203166002900490600052602060002090601f016020900481019282601f10610d6e57805160ff1916838001178555610d9b565b82800160010185558215610d9b579182015b82811115610d9b578251825591602001919060010190610d80565b50610da7929150610e25565b5090565b6040518060800160405280606081526020016000815260200160006001600160a01b031681526020016000151581525090565b50805460018160011615610100020316600290046000825580601f10610e045750610e22565b601f016020900490600052602060002090810190610e229190610e25565b50565b610e3f91905b80821115610da75760008155600101610e2b565b9056fea165627a7a723058204dfe0f166219d13ce6e578ff22dcefef47b0cdcb27d5b065862a25f604c589240029",
  "source": "pragma solidity ^0.5.0;\n\nimport './VSTToken.sol';\n\n/**\nWrite a Store contract with following methods:\n sell(_productName, _price) and buy(_productName).\n Invoking of sell method will record in smart contract the price of the product at which you can buy this product.\n Invoking the buy method will remove the product from smart contract and will transfer the corresponding amount of VST tokens from buyer to seller.\n */\ncontract Store {\n    VSTToken internal Token;\n    constructor(address tokenAddress) public {\n        Token = VSTToken(tokenAddress);\n    }\n    mapping(string => Product) public products;\n    string[] public productIndex;\n    struct Product {\n        string name;\n        uint price;\n        address payable owner;\n        bool purchased;\n    }\n\n    event ProductCreated(\n        string name,\n        uint price,\n        address payable owner,\n        bool purchased\n    );\n\n    event ProductPurchased(\n        string name,\n        uint price,\n        address payable owner,\n        bool purchased\n    );\n\n    function checkBalance(address _address) public view returns (uint _balance) {\n        return Token.balanceOf(_address);\n    }\n    // allowance from token holder should be set to be able to transfer tokens\n    function transferFunds(address _buyer, address _seller, uint256 _price) public  returns (bool) {\n        Token.transferFrom(_buyer, _seller, _price);\n        return true;\n    }\n\n    function sellProduct(string memory _name, uint _price) public {\n        // Require a valid name\n        require(bytes(_name).length > 0, \"Invalid name\");\n        // Require a valid price\n        require(_price > 0, \"Invalid price\");\n        // Increment product count\n        // Create the product\n        products[_name] = Product(_name, _price, msg.sender, false);\n        // add index to an array\n        productIndex.push(_name);\n        // Trigger an event\n        emit ProductCreated(_name, _price, msg.sender, false);\n    }\n\n    function purchaseProduct(string memory _name) public payable {\n        // Fetch the product\n        Product memory _product = products[_name];\n        // Fetch the owner\n        address payable _seller = _product.owner;\n        // Require that the buyer is not the seller\n        require(_seller != msg.sender, \"Cant buy your own product\");\n        // Check buyer token balance\n        uint buyerBalance = checkBalance(msg.sender);\n        require(buyerBalance >= _product.price, \"Not enough funds\");\n        // Transfer tokens from buyer to seller\n        transferFunds(msg.sender, _seller, _product.price);\n        // Trigger an event\n        emit ProductPurchased(_product.name, _product.price, msg.sender, true);\n        // Delete the product => set its values to 0\n        delete products[_name];\n        // remove _name from an array\n    }\n\n    function productCount() public view returns (uint count) {\n        count = productIndex.length;\n    }\n}",
  "sourcePath": "/Users/roman/Documents/Projects/VST/contracts/Store.sol",
  "compiler": {
    "name": "solc",
    "version": "0.5.8+commit.23d335f2.Emscripten.clang"
  },
  "schemaVersion": "3.0.16",
  "updatedAt": "2019-10-09T11:52:38.337Z",
  "devdoc": {
    "methods": {}
  },
  "userdoc": {
    "methods": {},
    "notice": "Write a Store contract with following methods: sell(_productName, _price) and buy(_productName). Invoking of sell method will record in smart contract the price of the product at which you can buy this product. Invoking the buy method will remove the product from smart contract and will transfer the corresponding amount of VST tokens from buyer to seller."
  }
}